:020000040000FA
:040000003BEF61F081
:10C0D00012009E961200C69A12009D961200C5800C
:10C0E0001200C5821200C5841200010E1200050E56
:10C0F0001200C5861200C95012009E861200C58A21
:10C10000C5881200C59AC58812008FEC61F0C582FF
:10C1100012008FEC61F0C58012008FEC61F0C584D5
:10C120001200016E01C0C9FF120071EC60F0010E37
:10C13000120071EC60F0020E120071EC60F0010E62
:10C14000120073EC60F0000E120082EC60F0050E3D
:10C1500012007FEC60F00A0E12007FEC60F0090E16
:10C160001200000EF7EC62F012008FEC61F002C0DA
:10C17000C9FF1200B5EC61F0E9EC60F012000101BA
:10C180007393000E726F0E0E12000101739179EC21
:10C1900060F0040E120001017393000E726F0E0E18
:10C1A000120001017381D8806C3591EC60F0050EAE
:10C1B0001200010173816C516C2591EC60F0030E4B
:10C1C00012009EA6E6EF60F0E8EF60F0E1EF60F0AD
:10C1D0001200600ED36E000ED26E000E9B6E000E2B
:10C1E0009A6E1200000EC76E080EC66E000EC56E67
:10C1F000130EC86EC69A1200C5BC01EF61F004EFC1
:10C2000061F0010E05EF61F0000E120006C001F0B2
:10C2100007C002F008C003F009C004F0000E70EC83
:10C2200065F0120006C001F007C002F008C003F07C
:10C2300009C004F0020E70EC65F012001A6E1A507C
:10C24000B0091B6E1B506CEC61F0000E6CEC61F0E1
:10C25000100E6CEC61F0120032EF61F0E1EC60F076
:10C2600000EC65F0010173B338EF61F03AEF61F073
:10C270002EEF61F0120001EE00F0C40EEE6AE80647
:10C28000FDE100EEB0F0410EEE6AE806FDE10001CE
:10C2900094EF6EF0C6BA4FEF61F051EF61F05AEFD4
:10C2A00061F0000EC76E080EC66E000EC56E130E4E
:10C2B000C86EC68A1200176E400E186E17C019F0AD
:10C2C000180E126E000E136E000E156E020E146E16
:10C2D0003C0EB0EC63F01200176E000E186E17C023
:10C2E00019F0180E126E000E136E000E156E020E6F
:10C2F000146E3C0EB0EC63F01200010173A783EFE3
:10C3000061F085EF61F08EEF61F001C06DF102C068
:10C310006EF103C06FF104C070F173971200C7B4DF
:10C3200094EF61F096EF61F08FEF61F0C5CF01F00F
:10C330001F0E0116D8A49FEF61F0A1EF61F08FEFFF
:10C3400061F0120001500302F3CF05F0F4CF06F0C4
:10C3500001500402F350062602500302F350062651
:10C3600005C001F006C002F01200000E896E000E3A
:10C370008A6E000E8B6EEF0E926E9368BF0E946EF7
:10C38000DF0E0F015D6F7F0E5C6F000E5B6FF18E35
:10C390001200010E016E010173B3D1EF61F0D3EF12
:10C3A00061F0DDEF61F073956C6969EC60F06DEC44
:10C3B00060F06BEC60F072C101F0015012000AC035
:10C3C00001F00BC002F0000E046E020E036E7DEC55
:10C3D00061F0000E066E000E076E000E086E000E75
:10C3E000096E06EC61F0040E12000AC001F00BC0E9
:10C3F00002F0000E046E010E036E7DEC61F0000E83
:10C40000066E000E076E000E086E000E096E06EC3A
:10C4100061F0020E12000AC001F00BC002F0000E23
:10C42000046E020E036E7DEC61F0000E066E000ECF
:10C43000076E000E086E000E096E06EC61F0020E2B
:10C4400012000AC001F00BC002F0000E046E010ED3
:10C45000036E7DEC61F0000E066E000E076E000E9E
:10C46000086E000E096E06EC61F0040E1200000E5C
:10C470001B6E000E1A6E000E5BEC61F01A4A1B2A4E
:10C480001BBE4AEF62F0040E1B5CD8A04AEF62F0BC
:10C490004CEF62F03BEF62F012008FEC61F0C5866A
:10C4A0008FEC61F0C9CF04F0056A8FEC61F00250A7
:10C4B0000310D8B45EEF62F061EF62F0C58A62EFFC
:10C4C00062F0C59AC58804C002F005C003F01200EE
:10C4D00001C003F002C004F070EF62F0014A022ACA
:10C4E00001C0D9FF02C0DAFFDF50D8A47AEF62F0B2
:10C4F0007CEF62F06EEF62F00350015C016E04505D
:10C500000258026E1200D00E036EFF0E046E01C0C0
:10C5100005F002C006F0035005260450062206501E
:10C520000AE10A0E055CD8A098EF62F09BEF62F07A
:10C53000010E9CEF62F0000E016E026A12000150C3
:10C54000021003100410D8B4A8EF62F0AAEF62F052
:10C55000B2EF62F0000E011A000E021A000E031A6A
:10C56000800E041A01C001F002C002F003C003F003
:10C5700004C004F01200BF0E036EFF0E046E01C073
:10C5800005F002C006F003500526045006220650AE
:10C590000AE11A0E055CD8A0D0EF62F0D3EF62F08A
:10C5A000010ED4EF62F0000E016E026A120020EE5E
:10C5B00002F00A50D9260B50DA22DECF01F0DDCF8F
:10C5C00002F00AC0D9FF0BC0DAFFDECF03F0DDCFE7
:10C5D00004F07DEC61F0000E066E000E076E000E9A
:10C5E000086E000E096E06EC61F0020E1200106E6D
:10C5F000010E116E010173B300EF63F002EF63F0FF
:10C6000017EF63F07383000E116E1050D8B40BEF68
:10C6100063F00DEF63F011EF63F0010E716F13EF34
:10C6200063F0020E716F6FEC60F02CEC61F0115052
:10C630001200000E106E000E0F6E2AEF63F00EC097
:10C6400001F0026A0CC003F00DC004F0FAEC68F0CF
:10C650000F4A102A0F500A24D96E10500B20DA6EA0
:10C66000DF500E6E0E50D8A438EF63F03AEF63F04F
:10C670001FEF63F01200000E321A000E331A000E84
:10C68000341A800E351A2EC001F02FC002F030C0CF
:10C6900003F031C004F032C005F033C006F034C0FE
:10C6A00007F035C008F0A8EC76F001C02EF002C00B
:10C6B0002FF003C030F004C031F01200010E076EFD
:10C6C000200E01180210D8B468EF63F06AEF63F02F
:10C6D00083EF63F0F70E036EFF0E046E01C005F0EA
:10C6E00002C006F00350052604500622065009E158
:10C6F000050E055CD8A07FEF63F081EF63F083EF58
:10C7000063F0000E076E07C001F0026A1200A20E6D
:10C710000001A86F000EA96F9EC0AAF09FC0ABF0E9
:10C72000000EAD6F000EAC6F000EAF6F000EAE6F5F
:10C73000AA0E986F000E996FA0C09AF0A1C09BF04E
:10C74000A80E9C6F000E9D6F9BEC64F00001AC5135
:10C750009E25D96EAD519F21DA6E000EDF6E12005C
:10C76000166E1650EBEC65F00009D8B4BAEF63F022
:10C77000BCEF63F0B1EF63F012C001F013C002F040
:10C7800014C003F015C004F07DEC61F0000E066EDD
:10C79000000E076E000E086E000E096E12EC61F0BE
:10C7A000B1EC60F0C9EC61F0E806D8B4DAEF63F000
:10C7B000DCEF63F0D2EF63F01200280EC66E000EBD
:10C7C000C56E000E016E120E026E7A0E036E000E22
:10C7D000046E0EC012F00FC013F010C014F011C0A0
:10C7E00015F0020ED8901236133614361536E82E90
:10C7F000F2EF63F012C005F013C006F014C007F0AA
:10C8000015C008F081EC66F00104C86E000EC76E1A
:10C8100094869488120003C007F004C008F001C099
:10C8200009F002C00AF00750056E0850066E074A6C
:10C83000082A05C0F6FF06C0F7FF000EF86E09C013
:10C84000D9FF0AC0DAFF094A0A2A0E0EF76403D09C
:10C850000800F55005D0F6CFE9FFF7CFEAFFEF501B
:10C86000DF6EDF50D8A437EF64F039EF64F013EFD8
:10C8700064F01200BF0E096EFF0E0A6E07C00BF0C7
:10C8800008C00CF009500B260A500C220C500AE18B
:10C890001A0E0B5CD8A04FEF64F052EF64F0010E5B
:10C8A00053EF64F0000E0D6E0E6A0D500E10D8B4EA
:10C8B0005CEF64F05EEF64F065EF64F0200E07104B
:10C8C000076E0850086E69EF64F007C007F008C0F3
:10C8D00008F0120081EF64F021C0F6FF22C0F7FFDC
:10C8E000000EF86E0E0EF76403D00800F55005D068
:10C8F000F6CFE9FFF7CFEAFFEF5038EC65F0214AB9
:10C90000222A21C0F6FF22C0F7FF000EF86E0E0E9D
:10C91000F76403D00800F55005D0F6CFE9FFF7CF54
:10C92000EAFFEF500009D8A498EF64F09AEF64F0A2
:10C930006CEF64F012009AC05CF09BC05DF0000EDA
:10C940000001D16F000ED06FB9EF64F098C046F0CF
:10C9500099C047F05C0E486E000E496E9CC04AF0CC
:10C960009DC04BF06CEC74F046500001D02747504E
:10C97000D1235CC0F6FF5DC0F7FFF86A0800F550F0
:10C980000009D8A4C6EF64F0C8EF64F0A6EF64F025
:10C99000D0C098F0D1C099F0120001017391020E3D
:10C9A000726FDBEF64F09DEC60F0FFEF64F0A1ECE0
:10C9B00060F0FFEF64F060C10AF061C10BF002D8D3
:10C9C000EBEF64F00500FA6E5451FD6E5551FE6EAA
:10C9D000FF6AFA5012000C6E0D6A0D50000AD8B4AE
:10C9E000F4EF64F0D7EF64F00C50020AD8B4D3EF40
:10C9F00064F0010AD8B4D3EF64F0D7EF64F012000A
:10CA000069EC60F0010173A108EF65F00AEF65F0D1
:10CA100017EF65F0FCEC60F00009D8B412EF65F098
:10CA200014EF65F017EF65F00F0E0101716F010152
:10CA30007151020DC10EF324F66EFD0EF420F76E57
:10CA4000F86A000EF8220900F5CF0EF00900F5CFC4
:10CA50000FF002D835EF65F00500FA6E0E50FD6E4E
:10CA60000F50FE6EFF6AFA5012000101716F120042
:10CA70001E6E000E206E000E1F6E600E1A6EFF0EF0
:10CA80001B6E1E50050DE10E1C6EFD0E1D6EF3504B
:10CA90001C26F4501D221F501C2620501D221A5007
:10CAA0001C261B501D221CC0F6FF1DC0F7FFF86A94
:10CAB0000800F5505BEC61F01F4A202A20BE6AEFA7
:10CAC00065F0205009E1050E1F5CD8A06AEF65F003
:10CAD0006CEF65F03DEF65F0000E5BEC61F012006D
:10CAE000056E01500210D8B478EF65F07AEF65F06A
:10CAF00094EF65F00550020D500EF324D96E010E2F
:10CB0000F420DA6E01C0DEFF02C0DDFF0550020D29
:10CB10005C0EF324D96E010EF420DA6E03C0DEFF42
:10CB200004C0DDFFACEF65F00550020D500EF3249C
:10CB3000D96E010EF420DA6EEA0EDE6EC00EDD6EE6
:10CB40000550020D5C0EF324D96E010EF420DA6E4E
:10CB5000000EDE6E000EDD6E120001017387BEEF67
:10CB600065F09DEC60F0EAEF65F07DEC60F0030E9F
:10CB7000EAEF65F0A1EC60F0EAEF65F05CC10AF065
:10CB80005DC10BF002D8CEEF65F00500FA6E505192
:10CB9000FD6E5151FE6EFF6AFA5012000C6E0D6A66
:10CBA0000D50000AD8B4D7EF65F0BAEF65F00C501D
:10CBB000010AD8B4BAEF65F0030AD8B4B1EF65F052
:10CBC000010AD8B4B1EF65F0070AD8B4B5EF65F043
:10CBD000BAEF65F01200016E010E026E010173B52D
:10CBE000F4EF65F0F6EF65F030EF66F001C06CF140
:10CBF0007393738573910E0E716F010E6B6FF40E4C
:10CC00006A6F7387EA0E506FC00E516F000E5C6F33
:10CC1000000E5D6FEA0E526FC00E536F000E5E6F16
:10CC2000000E5F6FEA0E546FC00E556F000E606FFE
:10CC3000000E616FEA0E566FC00E576F000E626FE6
:10CC4000000E636FEE0E586FC00E596F000E646FCA
:10CC5000000E656F69EC60F04AEC61F0000E026E48
:10CC600002501200AE0E6CEC61F0D50E6CEC61F06F
:10CC7000800E6CEC61F0A80E6CEC61F03F0E6CEC79
:10CC800061F0D30E6CEC61F0000E6CEC61F0400EC4
:10CC90006CEC61F08D0E6CEC61F0140E6CEC61F0DC
:10CCA000200E6CEC61F0000E6CEC61F0A10E6CECEF
:10CCB00061F0C80E6CEC61F0DA0E6CEC61F0020E03
:10CCC0006CEC61F0810E6CEC61F08F0E6CEC61F03D
:10CCD000D90E6CEC61F0F10E6CEC61F0DB0E6CECDB
:10CCE00061F0400E6CEC61F0A40E6CEC61F0A60EED
:10CCF0006CEC61F02E0E6CEC61F0AF0E6CEC61F040
:10CD00001200000E096E000E0A6E000E0B6E000E71
:10CD10000C6E0550061007100810D8B492EF66F09C
:10CD200094EF66F0CAEF66F0010E0D6E9EEF66F0AE
:10CD3000D89005360636073608360D2A08AEA3EF1A
:10CD400066F0A5EF66F098EF66F0D89009360A36DF
:10CD50000B360C360550015C06500258075003583C
:10CD600008500458D8A0B7EF66F0B9EF66F0C2EFEC
:10CD700066F00550015E0650025A0750035A0850EB
:10CD8000045A0980D89008320732063205320D2E37
:10CD9000A5EF66F009C001F00AC002F00BC003F075
:10CDA0000CC004F012007BEC60F06DC1D9FF6EC1C5
:10CDB000DAFFDF6E01016D4B6E2B6F07D8A0700795
:10CDC0006F517011D8B4E7EF66F0E9EF66F0EEEF5F
:10CDD00066F082EC60F0050E25EF67F07387F9EFDF
:10CDE00066F0ADEC60F025EF67F0A9EC60F025EFA0
:10CDF00067F05CC10AF05DC10BF002D809EF67F083
:10CE00000500FA6E5051FD6E5151FE6EFF6AFA50E8
:10CE100012000C6E0D6A0D50000AD8B412EF67F0C4
:10CE2000F5EF66F00C50010AD8B4F5EF66F0030A8E
:10CE3000D8B4F1EF66F0010AD8B4F1EF66F0070A52
:10CE4000D8B4F5EF66F0F5EF66F01200000E0114AD
:10CE5000096E000E02140A6E800E03140B6E7F0E14
:10CE600004140C6E09500A100B100C10D8A43BEFE0
:10CE700067F03DEF67F045EF67F0000E016E000EC2
:10CE8000026E000E036E000E046E000E0514096E95
:10CE9000000E06140A6E800E07140B6E7F0E081427
:10CEA0000C6E09500A100B100C10D8A45AEF67F042
:10CEB0005CEF67F064EF67F0000E056E000E066E23
:10CEC000000E076E000E086E055001180FE10650A7
:10CED00002180CE10750031809E108500418D8B4EF
:10CEE00074EF67F076EF67F079EF67F0D8907AEF3C
:10CEF00067F0D8801200000E066E02BE84EF67F065
:10CF000082EF67F08AEF67F0016C021ED8B0022A48
:10CF1000010E066E04BE91EF67F08FEF67F095EF9C
:10CF200067F0036C041ED8B0042A03500410D8B470
:10CF30009CEF67F09EEF67F0C2EF67F0010E056EA1
:10CF4000A6EF67F0D89003360436052A04AEABEF9F
:10CF500067F0ADEF67F0A2EF67F00350015C04509B
:10CF60000258D8A0B6EF67F0B8EF67F0BCEF67F0F3
:10CF70000350015E0450025AD89004320332052E49
:10CF8000ADEF67F00650D8B4C8EF67F0CAEF67F0AE
:10CF9000CEEF67F0016C021ED8B0022A01C001F08A
:10CFA00002C002F01200FCEC60F00009D8B4DBEF24
:10CFB00067F0DDEF67F018EF68F0EBEF67F095ECE6
:10CFC00060F034EF68F099EC60F034EF68F0A1ECB9
:10CFD00060F034EF68F062C10AF063C10BF002D870
:10CFE000FCEF67F00500FA6E01015651FD6E5751D6
:10CFF000FE6EFF6AFA5012000C6E0D6A0D50000AA8
:10D00000D8B405EF68F0E7EF67F00C50010AD8B428
:10D01000E7EF67F0030AD8B4DFEF67F0010AD8B48E
:10D02000E3EF67F0070AD8B4E7EF67F0E7EF67F0E0
:10D03000010173916DC1D9FF6EC1DAFF6D4B6E2B8B
:10D04000DF5091EC60F001016F07D8A070076F51BD
:10D050007011D8A42EEF68F030EF68F033EF68F06D
:10D06000060E34EF68F0030E1200000E066E04BECA
:10D070003EEF68F03CEF68F044EF68F0036C041E8C
:10D08000D8B0042A010E066E02BE4BEF68F049EFDD
:10D0900068F051EF68F0016C021ED8B0022A010E50
:10D0A000061A000E086E000E076E03500410D8B466
:10D0B0005CEF68F05EEF68F086EF68F0010E056ED9
:10D0C00066EF68F0D89003360436052A04AE6BEF9D
:10D0D00068F06DEF68F062EF68F0D89007360836B8
:10D0E0000350015C04500258D8A079EF68F07BEF40
:10D0F00068F080EF68F00350015E0450025A078028
:10D10000D89004320332052E6DEF68F00650D8B483
:10D110008CEF68F08EEF68F092EF68F0076C081EF5
:10D12000D8B0082A07C001F008C002F012000001C0
:10D13000D6A19DEF68F09FEF68F0A9EF68F013C0EB
:10D140000AF014C00BF011C00CF012C00DF019EC75
:10D1500063F016BEAEEF68F0B0EF68F0B6EF68F0BF
:10D1600015C01AF016C01BF0BAEF68F0000E1B6E67
:10D17000000E1A6E000E196E000E186ECCEF68F0DD
:10D18000000E026E200E016E11C003F012C004F0FA
:10D19000FAEC68F0184A192A1A50185C1950800ADB
:10D1A000176E1B50800A1758D8A0D9EF68F0DBEF34
:10D1B00068F0C0EF68F00001D6B1E1EF68F0E3EF8E
:10D1C00068F0EDEF68F013C00AF014C00BF011C066
:10D1D0000CF012C00DF019EC63F013C001F014C094
:10D1E00002F068EC62F01A500124116E1B5002200C
:10D1F000126E120003500410D8B401EF69F003EF6F
:10D2000069F00CEF69F003500410D8A40AEF69F03C
:10D210000CEF69F011EF69F0015068EC60F05EEF1F
:10D2200069F020EE04F00350D9260450DA22DE50D3
:10D23000DE10D8B41EEF69F020EF69F03BEF69F023
:10D2400020EE04F00350D9260450DA2210EE02F04A
:10D250000350E1260450E222DE50E65CE650800AEC
:10D26000096EDE50800A0958D8B039EF69F03BEFFB
:10D2700069F05EEF69F020EE02F00350D926045009
:10D28000DA22DECF05F0DDCF06F003C0D9FF04C0FF
:10D29000DAFFDECF07F0DDCF08F005500724D96EA6
:10D2A00006500820DA6E01C0DFFF20EE02F00350C6
:10D2B000D9260450DA22DE2A000EDD22120001C037
:10D2C00008F002C009F003C00AF004C00BF0050624
:10D2D000D8A00606052806E10628D8A472EF69F052
:10D2E00074EF69F081EF69F0000E026E000E016EBE
:10D2F000CCEF69F0084A092A0A4A0B2A0506D8A089
:10D30000060608C0D9FF09C0DAFFDF50D8B48BEF9A
:10D3100069F08DEF69F0BAEF69F00AC0F6FF0BC053
:10D32000F7FFF86A0800F5500009D8B49AEF69F0E1
:10D330009CEF69F0BAEF69F005500610D8B4A3EF7E
:10D3400069F0A5EF69F0BAEF69F008C0D9FF09C02C
:10D35000DAFFDF50076E0AC0F6FF0BC0F7FFF86A6E
:10D360000800F5500718D8B4B8EF69F0BAEF69F0C3
:10D370007AEF69F008C0D9FF09C0DAFFDF50076E05
:10D380000AC0F6FF0BC0F7FFF86A0800F550075C0B
:10D39000016E026AD8A002061200B4C00BF0B5C03C
:10D3A0000CF0B6C00DF0B7C00EF001C00BF002C01B
:10D3B0000CF003C00DF004C00EF00BC005F00CC063
:10D3C00006F00DC007F00EC008F0180EEDEF69F082
:10D3D000D8900832073206320532E82EE8EF69F0BD
:10D3E0000550096E0A6A09500A10D8A4FAEF69F0CC
:10D3F000FCEF69F01CEF6AF0D8900B34056E0C342A
:10D40000066E0D34076E0E34086E055006100710B8
:10D410000810D8A40EEF6AF010EF6AF016EF6AF069
:10D42000000E026E020E016E4BEF6AF0000E026EED
:10D43000030E016E4BEF6AF009280A10D8A423EFFF
:10D440006AF025EF6AF047EF6AF00BC005F00CC0F8
:10D4500006F00DC007F00EC008F0090ED890053692
:10D46000063607360836E82E2EEF6AF0055006100D
:10D4700007100810D8B43FEF6AF042EF6AF0010ECF
:10D4800043EF6AF0000E016E026A4BEF6AF0000E85
:10D49000026E040E016E1200000E2E14366E000E87
:10D4A0002F14376E800E3014386E7F0E3114396EA3
:10D4B0003650371038103910D8A461EF6AF063EF96
:10D4C0006AF06BEF6AF0000E2E6E000E2F6E000EEB
:10D4D000306E000E316E000E3214366E000E3314B4
:10D4E000376E800E3414386E7F0E3514396E365018
:10D4F000371038103910D8A480EF6AF082EF6AF044
:10D500008AEF6AF0000E326E000E336E000E346E3B
:10D51000000E356E31AE8FEF6AF091EF6AF09AEF40
:10D520006AF02E6C2F1ED8B02F2A301ED8B0302AA9
:10D53000800E315635AE9FEF6AF0A1EF6AF0AAEF88
:10D540006AF0326C331ED8B0332A341ED8B0342A75
:10D55000800E3556000E2E1A000E2F1A000E301AAD
:10D56000800E311A000E321A000E331A000E341AD1
:10D57000800E351A32502E5C33502F5834503058AC
:10D5800035503158D8B0C7EF6AF0C9EF6AF0CCEF28
:10D590006AF0D890CDEF6AF0D880120003340434DA
:10D5A0000A6E0A50D8A4D7EF6AF0D9EF6AF0E3EF19
:10D5B0006AF0000E016E000E026E000E036E000E89
:10D5C000046E50EF6BF001C005F002C006F003C01E
:10D5D00007F004C008F0200EF3EF6AF0D89008328C
:10D5E000073206320532E82EEEEF6AF00550096E7A
:10D5F000038EFF0E0116FF0E0216FF0E0316000E1D
:10D600000416960E0A5E0ABE0AEF6BF008EF6BF086
:10D6100020EF6BF00A50800A970FD8B012EF6BF032
:10D6200014EF6BF016EF6BF0D9EF6AF0D89004327C
:10D630000332023201320A3E16EF6BF038EF6BF024
:10D640001F0E0A6426EF6BF028EF6BF030EF6BF0E3
:10D65000D9EF6AF0D89001360236033604360A064E
:10D660000A50D8A436EF6BF038EF6BF02AEF6BF06E
:10D670000950D8B43EEF6BF040EF6BF048EF6BF021
:10D68000041E031E021E016C000E0222032204224D
:10D6900001C001F002C002F003C003F004C004F0B6
:10D6A000120089EC60F0000E036E800E026EB5EC85
:10D6B00060F0000E036E030E026EB5EC60F085ECB8
:10D6C00060F0000E036E810E026EB5EC60F0000E8D
:10D6D000036E010E026E4DEC62F00250226E000EDF
:10D6E000036E000E026E4DEC62F022501F6E1E6A39
:10D6F00002501E10206E03501F10216E20C001F03A
:10D7000021C002F0000E046E0A0E036EA2EC61F05E
:10D7100001C007F002C008F0096A0A6A000EBAECFC
:10D720006DF007C0B8F008C0B9F009C0BAF00AC07F
:10D73000BBF08DEC60F0B8C001F0B9C002F0BAC027
:10D7400003F0BBC004F0000E056E000E066E7A0EEC
:10D75000076E440E086E8AEC70F001C0B8F002C08B
:10D76000B9F003C0BAF004C0BBF0040E1F6E0C0E7B
:10D770001E6E340EE82EFED71E2EFCD71F2EFAD7B3
:10D78000070E1F6E170E1E6E6A0EE82EFED71E2E97
:10D79000FCD71F2EFAD700D0B8C01AF0B9C01BF0C2
:10D7A000BAC01CF0BBC01DF0120089EC60F0000E86
:10D7B000036E800E026EB5EC60F0000E036E010E7B
:10D7C000026EB5EC60F085EC60F0000E036E810E29
:10D7D000026EB5EC60F0000E036E010E026E4DECB1
:10D7E00062F00250366E000E036E000E026E4DECBB
:10D7F00062F03650336E326A02503210346E03508B
:10D800003310356E34C007F035C008F0096A0A6A73
:10D81000000EBAEC6DF007C015F008C016F009C094
:10D8200017F00AC018F0000E196E000E1A6EA00E46
:10D830001B6E3F0E1C6E57EC72F015C0BCF016C08C
:10D84000BDF017C0BEF018C0BFF08DEC60F0BCC0DA
:10D8500001F0BDC002F0BEC003F0BFC004F0000E76
:10D86000056E000E066E7A0E076E440E086E8AEC88
:10D8700070F001C0BCF002C0BDF003C0BEF004C037
:10D88000BFF0040E336E0C0E326E340EE82EFED74F
:10D89000322EFCD7332EFAD7070E336E170E326EA8
:10D8A0006A0EE82EFED7322EFCD7332EFAD700D0E0
:10D8B000BCC02EF0BDC02FF0BEC030F0BFC031F0F4
:10D8C000120089EC60F0000E036E800E026EB5EC63
:10D8D00060F0000E036E020E026EB5EC60F085EC97
:10D8E00060F0000E036E810E026EB5EC60F0000E6B
:10D8F000036E010E026E4DEC62F00250366E000EA9
:10D90000036E000E026E4DEC62F03650336E326ADA
:10D9100002503210346E03503310356E34C007F0AD
:10D9200035C008F0096A0A6A000EBAEC6DF007C04B
:10D9300015F008C016F009C017F00AC018F0000E64
:10D94000196E000E1A6EA00E1B6E3F0E1C6E57EC69
:10D9500072F015C0C0F016C0C1F017C0C2F018C0F8
:10D96000C3F08DEC60F0C0C001F0C1C002F0C2C0D5
:10D9700003F0C3C004F0000E056E000E066E7A0EB2
:10D98000076E440E086E8AEC70F001C0C0F002C051
:10D99000C1F003C0C2F004C0C3F0040E336E0C0E1D
:10D9A000326E340EE82EFED7322EFCD7332EFAD745
:10D9B000070E336E170E326E6A0EE82EFED7322E29
:10D9C000FCD7332EFAD700D0C0C02EF0C1C02FF044
:10D9D000C2C030F0C3C031F01200000E166E000E4F
:10D9E000156E000E0F6E000E0E6EF9EF6CF0084A09
:10D9F000092A010E146E08C0F6FF09C0F7FFF86A85
:10DA00000800F550200AD8B408EF6DF00AEF6DF069
:10DA100028EF6DF0F70E0A6EFF0E0B6E08C0F6FFD2
:10DA200009C0F7FFF86A0800F5500C6E0D6A0A503D
:10DA30000C260B500D220D5009E1050E0C5CD8A0F0
:10DA400024EF6DF026EF6DF028EF6DF0000E146EF0
:10DA500014C010F0116A10501110D8A432EF6DF0FC
:10DA600034EF6DF0F7EF6CF03EEF6DF0000E0F6EDF
:10DA7000010E0E6E084A092A75EF6DF008C0F6FF18
:10DA800009C0F7FFF86A0800F5500A6E0B6A0B50E0
:10DA9000000AD8B44EEF6DF075EF6DF00A502B0A06
:10DAA000D8B43AEF6DF0060AD8B436EF6DF075EFE2
:10DAB0006DF015C001F016C002F0000E046E0A0EE3
:10DAC000036EA2EC61F008C0F6FF09C0F7FFF86A28
:10DAD0000800F550015E000E025A300E0124156E4A
:10DAE000000E0220166E3AEF6DF0D00E0A6EFF0E99
:10DAF0000B6E08C0F6FF09C0F7FFF86A0800F55082
:10DB00000C6E0D6A0A500C260B500D220D500AE1C6
:10DB10000A0E0C5CD8A08FEF6DF092EF6DF0010E45
:10DB200093EF6DF0000E126E136A12501310D8A40A
:10DB30009CEF6DF09EEF6DF059EF6DF00E500F10F1
:10DB4000D8A4A5EF6DF0A7EF6DF0B5EF6DF015C09F
:10DB50000AF016C00BF00A1E0B1E0A4A0B2A0AC056
:10DB600008F00BC009F0B9EF6DF015C008F016C051
:10DB700009F012000F6E0F50D8B4C1EF6DF0C3EF73
:10DB80006DF0E5EF6DF00ABECAEF6DF0C8EF6DF015
:10DB9000E5EF6DF007C00BF008C00CF009C00DF008
:10DBA0000AC00EF00B1E0C1E0D1E0E1E0B2A000EC0
:10DBB0000C220D220E220BC011F00CC012F00DC071
:10DBC00013F00EC014F0EDEF6DF007C011F008C0B7
:10DBD00012F009C013F00AC014F007500810091021
:10DBE0000A10D8A4F6EF6DF0F8EF6DF002EF6EF0CA
:10DBF000000E076E000E086E000E096E000E0A6E13
:10DC000093EF6EF0960E106E0CEF6EF0102AD89017
:10DC10001432133212321132000E11140B6E000E38
:10DC200012140C6E000E13140D6EFE0E14140E6EF4
:10DC30000B500C100D100E10D8A421EF6EF023EF36
:10DC40006EF006EF6EF031EF6EF0102A010E112625
:10DC5000000E122213221422D890143213321232E0
:10DC60001132000E11140B6E000E12140C6E000E09
:10DC700013140D6EFF0E14140E6E0B500C100D10BD
:10DC80000E10D8A446EF6EF048EF6EF025EF6EF060
:10DC900050EF6EF01006D890113612361336143647
:10DCA00013BE55EF6EF057EF6EF05FEF6EF0020EA1
:10DCB00010605DEF6EF05FEF6EF04AEF6EF010B047
:10DCC00064EF6EF066EF6EF067EF6EF0139ED89023
:10DCD000103210C00BF00C6A0D6A0E6A0BC00EF009
:10DCE0000D6A0C6A0B6A0B5011120C5012120D5077
:10DCF00013120E5014120F50D8B481EF6EF083EF50
:10DD00006EF08BEF6EF00ABE8AEF6EF088EF6EF069
:10DD10008BEF6EF0148E11C007F012C008F013C024
:10DD200009F014C00AF01200BAEC60F0F2EC60F0F6
:10DD300032EC66F037EC62F0000E1EEC61F0FC0E87
:10DD4000216EFF0E226E6AEC64F037EC62F0010E79
:10DD50001EEC61F0F50E216EFF0E226E6AEC64F08F
:10DD6000070E5F6E170E5E6E6A0EE82EFED75E2EF1
:10DD7000FCD75F2EFAD700D0800E0E6E1A0E0F6EF3
:10DD8000060E106E000E116EDDEC63F061EC6CF0AF
:10DD90002EC0CCF02FC0CDF030C0CEF031C0CFF0CF
:10DDA000D5EC6BF02EC0C8F02FC0C9F030C0CAF05F
:10DDB00031C0CBF051EC6BF01AC0C4F01BC0C5F001
:10DDC0001CC0C6F01DC0C7F0EB0E00019E6F000E18
:10DDD0009F6FE00EA06FFF0EA16FCCC0A2F0CDC070
:10DDE000A3F0CEC0A4F0CFC0A5F087EC63F0E50EA1
:10DDF00000019E6F000E9F6FE00EA06FFF0EA16FDF
:10DE0000C8C0A2F0C9C0A3F0CAC0A4F0CBC0A5F09E
:10DE100087EC63F0DF0E00019E6F000E9F6FE00E37
:10DE2000A06FFF0EA16FC4C0A2F0C5C0A3F0C6C012
:10DE3000A4F0C7C0A5F087EC63F0070E5F6E170E65
:10DE40005E6E6A0EE82EFED75E2EFCD75F2EFAD7E6
:10DE500000D037EC62F0000E1EEC61F0D70E216EA0
:10DE6000FF0E226E6AEC64F0EB0E216E000E226E45
:10DE70006AEC64F0070E5F6E170E5E6E6A0EE82E97
:10DE8000FED75E2EFCD75F2EFAD700D0010E1EEC17
:10DE900061F0CC0E216EFF0E226E6AEC64F0E50E8E
:10DEA000216E000E226E6AEC64F0070E5F6E170E94
:10DEB0005E6E6A0EE82EFED75E2EFCD75F2EFAD776
:10DEC00000D0020E1EEC61F0C10E216EFF0E226E1C
:10DED0006AEC64F0DF0E216E000E226E6AEC64F0D4
:10DEE0003D0E5F6EE10E5E6E400EE82EFED75E2E9A
:10DEF000FCD75F2EFAD737EC62F0BCEF6EF000EF84
:10DF000000F0B0C02AF0B1C02BF0B2C02CF0B3C00A
:10DF10002DF01AC02AF01BC02BF01CC02CF01DC025
:10DF20002DF0810E1E6EFF0E1F6E2AC020F02BC03A
:10DF300021F02CC022F02DC023F0180EA5EF6FF0B9
:10DF4000D8902332223221322032E82EA0EF6FF017
:10DF500020501E24286E000E1F20296E29BEBAEF05
:10DF60006FF0295009E1170E285CD8A0BAEF6FF0C6
:10DF7000BCEF6FF0C6EF6FF01AC01AF01BC01BF0B9
:10DF80001CC01CF01DC01DF089EF70F029BECBEF46
:10DF90006FF0CDEF6FF03DEF70F028C01EF0FF0E78
:10DFA0001F6EFF0E206E7F0E216E000E226E1E660B
:10DFB000DCEF6FF0E4EF6FF02234223221322032B6
:10DFC0001F321E2ED7EF6FF01FC024F020C025F0A7
:10DFD00021C026F022C027F024502A141E6E25509E
:10DFE0002B141F6E26502C14206E27502D14216EDA
:10DFF0001E501F1020102110D8A401EF70F003EF65
:10E0000070F005EF70F0BCEF6FF02AC01EF02BC06F
:10E010001FF02CC020F02DC021F0200E15EF70F065
:10E02000D890213220321F321E32E82E10EF70F0CD
:10E030001E501F1020102110D8B421EF70F023EFD4
:10E0400070F02BEF70F024502A2625502B222650FA
:10E050002C2227502D22241C1E6E251C1F6E261CD0
:10E06000206E271C216E1E502A161F502B16205082
:10E070002C1621502D1681EF70F02AC01EF02BC0F7
:10E080001FF02CC020F02DC021F0200E4DEF70F0BD
:10E09000D890213220321F321E32E82E48EF70F025
:10E0A0001E501F1020102110D8A459EF70F05BEF04
:10E0B00070F065EF70F0000E2A6E000E2B6E000EF1
:10E0C0002C6E000E2D6E81EF70F0D8902A341E6EEB
:10E0D0002B341F6E2C34206E2D34216E1E501F10D9
:10E0E00020102110D8B477EF70F079EF70F081EF45
:10E0F00070F0000E2A6E000E2B6E800E2C6EBF0E7E
:10E100002D6E2AC01AF02BC01BF02CC01CF02DC0A5
:10E110001DF012000450800B116E04500424186E80
:10E1200003AE95EF70F097EF70F098EF70F01880F5
:10E130001850D8B49EEF70F0A0EF70F0B5EF70F00B
:10E140001828D8A4A6EF70F0A8EF70F0B0EF70F028
:10E15000000E016E000E026E000E036E000E046EC5
:10E16000038E000E046EBDEF70F0000E016E000E07
:10E17000026E000E036E000E046E0850800B111A22
:10E1800008500824196E07AEC8EF70F0CAEF70F09F
:10E19000CBEF70F019801950D8B4D1EF70F0D3EFF5
:10E1A00070F0E8EF70F01928D8A4D9EF70F0DBEF29
:10E1B00070F0E3EF70F0000E056E000E066E000EBC
:10E1C000076E000E086E078E000E086EF0EF70F0FE
:10E1D000000E056E000E066E000E076E000E086E35
:10E1E0000550061007100810D8A4F9EF70F0FBEFE7
:10E1F00070F013EF71F0000E016E000E026E000E53
:10E20000036E000E046E800E03127F0E0412115076
:10E21000041201C001F002C002F003C003F004C008
:10E2200004F056EF72F01850D8A419EF71F01BEFFC
:10E2300071F025EF71F0000E016E000E026E000EFF
:10E24000036E000E046E56EF72F0195018C009F0FC
:10E250000A6A095E000E0A5A7F0E0924126E000E29
:10E260000A20136E01C00DF002C00EF003C00FF0C3
:10E2700004C010F0000E016E000E026E000E036E60
:10E28000000E046E000E146E000E156E000E166E5B
:10E29000000E176E000E196E86EF71F01950D8B48B
:10E2A00054EF71F056EF71F06DEF71F0D8900D36BC
:10E2B0000E360F361036D890013602360336043645
:10E2C00017AE65EF71F067EF71F068EF71F00180E4
:10E2D000D890143615361636173605500D5C065094
:10E2E0000E5807500F5808501058D8A07AEF71F008
:10E2F0007CEF71F085EF71F0178C05500D5E0650C4
:10E300000E5A07500F5A0850105A192A190E19643C
:10E310008CEF71F08EEF71F04EEF71F00D500E102A
:10E320000F101010D8B497EF71F099EF71F0B1EFB2
:10E3300071F01480B1EF71F0D890013602360336D7
:10E34000043617AEA6EF71F0A8EF71F0A9EF71F0E7
:10E350000180D89014361536163617361206D8A016
:10E36000130603AEB6EF71F0B8EF71F09CEF71F0E9
:10E37000000E196E17AEBFEF71F0C1EF71F0E5EF4F
:10E3800071F0FF0E1414096EFF0E15140A6EFF0EC5
:10E3900016140B6E7F0E17140C6E09500A100B101A
:10E3A0000C10D8B4D6EF71F0D8EF71F0DCEF71F04B
:10E3B000010E196EE5EF71F001A0E1EF71F0E3EFEE
:10E3C00071F0E5EF71F0D8EF71F01950D8B4EBEFC0
:10E3D00071F0EDEF71F011EF72F0010E0126000EF9
:10E3E00002220322042204A0F8EF71F0FAEF71F088
:10E3F00011EF72F001C009F002C00AF003C00BF087
:10E4000004C00CF00C340C320B320A32093209C051
:10E4100001F00AC002F00BC003F00CC004F0124A75
:10E42000132A13BE1CEF72F0135008E11228D8A073
:10E430001CEF72F01EEF72F029EF72F0000E136EF7
:10E440001268000E016E000E026E000E036E000ECA
:10E45000046E13BE36EF72F0135006E11204D8B00A
:10E4600034EF72F036EF72F044EF72F0000E136E7C
:10E47000000E126E000E016E000E026E000E036E94
:10E48000000E046E000E116E12C018F018A04BEFB3
:10E4900072F04DEF72F050EF72F0038E51EF72F0A8
:10E4A000039ED8901830046E07EF71F012001850D8
:10E4B000800B216E18501824276E17AE62EF72F091
:10E4C00064EF72F065EF72F027802750D8B46BEFDD
:10E4D00072F06DEF72F080EF72F02728D8A473EF1E
:10E4E00072F075EF72F07DEF72F0000E156E000E97
:10E4F000166E000E176E000E186E178E88EF72F0F3
:10E50000000E156E000E166E000E176E000E186EC1
:10E510001C50800B211A1C501C24266E1BAE93EF3E
:10E5200072F095EF72F096EF72F026802650D8B414
:10E530009CEF72F09EEF72F0B1EF72F02628D8A433
:10E54000A4EF72F0A6EF72F0AEEF72F0000E196E4B
:10E55000000E1A6E000E1B6E000E1C6E1B8EB9EFA5
:10E5600072F0000E196E000E1A6E000E1B6E000E79
:10E570001C6E2650D8B4BFEF72F0C1EF72F0C9EF35
:10E5800072F02750D8A4C7EF72F0C9EF72F0D3EF42
:10E5900072F0000E156E000E166E000E176E000E55
:10E5A000186E6BEF74F01B501502F3CF2CF0F4CF04
:10E5B0002DF02C50226E236A246A256A2D50286E75
:10E5C000296A2A6A2B6A1A501602F3CF2CF0F4CF6C
:10E5D0002DF02C502226000E2322242225222D50FD
:10E5E0002826000E29222A222B2219501702F3CFA7
:10E5F0002CF0F4CF2DF02C502226000E23222422C2
:10E6000025222D502826000E29222A222B2224C022
:10E6100025F023C024F022C023F0226A19501602EC
:10E62000F3CF2CF0F4CF2DF02C5022262D502322A6
:10E63000000E2422000E25221A501502F3CF2CF0D2
:10E64000F4CF2DF02C5022262D502322000E242210
:10E65000000E252224C025F023C024F022C023F080
:10E66000226A19501502F3CF2CF0F4CF2DF02C5064
:10E6700022262D502322000E2422000E25221B507C
:10E680001602F3CF2CF0F4CF2DF02C5028262D506D
:10E690002922000E2A22000E2B221A501702F3CF35
:10E6A0002CF0F4CF2DF02C5028262D502922000ECE
:10E6B0002A22000E2B221B501702F3CF2CF0F4CF8E
:10E6C0002DF02C501D6E2D501E6E1F6A206A1FC02B
:10E6D00020F01EC01FF01DC01EF01D6A1D50282610
:10E6E0001E5029221F502A2220502B2222C01DF00A
:10E6F00023C01EF024C01FF025C020F0190E86EFA5
:10E7000073F0D89020321F321E321D32E82E81EF76
:10E7100073F01D5028261E5029221F502A222050F7
:10E720002B2224C025F023C024F022C023F0226A2B
:10E73000265027C01DF01E6A1D26000E1E22820EC6
:10E740001D242C6EFF0E1E202D6EBCEF73F0D89092
:10E75000283629362A362B3625AEB1EF73F0B3EFC3
:10E7600073F0B4EF73F02880D89022362336243625
:10E7700025362C06D8A02D062AAEC1EF73F0C3EFC4
:10E7800073F0A7EF73F0000E266E25AECAEF73F09C
:10E79000CCEF73F0F0EF73F0FF0E22141D6EFF0E3E
:10E7A00023141E6EFF0E24141F6E7F0E2514206E80
:10E7B0001D501E101F102010D8B4E1EF73F0E3EFCE
:10E7C00073F0E7EF73F0010E266EF0EF73F028A000
:10E7D000ECEF73F0EEEF73F0F0EF73F0E3EF73F044
:10E7E0002650D8B4F6EF73F0F8EF73F01CEF74F026
:10E7F000010E2826000E29222A222B222BA003EF0D
:10E8000074F005EF74F01CEF74F028C01DF029C0FF
:10E810001EF02AC01FF02BC020F0203420321F32FF
:10E820001E321D321DC028F01EC029F01FC02AF064
:10E8300020C02BF02C4A2D2A2DBE27EF74F02D502E
:10E8400008E12C28D8A027EF74F029EF74F033EFFB
:10E8500074F0000E286E000E296E800E2A6E7F0E58
:10E860002B6E61EF74F02DBE40EF74F02D5006E179
:10E870002C04D8B03EEF74F040EF74F04CEF74F01D
:10E88000000E286E000E296E000E2A6E000E2B6EF2
:10E89000000E216E61EF74F02CC027F0FF0E2816D9
:10E8A000FF0E29167F0E2A16000E2B1627A05BEFEF
:10E8B00074F05DEF74F05EEF74F02A8ED89027301C
:10E8C0002B6E21502B1228C015F029C016F02AC03B
:10E8D00017F02BC018F0120048C0D9FF49C0DAFF6A
:10E8E000DECFF6FFDDCFF7FFF86A0800F550250A06
:10E8F000D8A47DEF74F07FEF74F08BEF76F048C012
:10E90000D9FF49C0DAFFDE2A000EDD22000E000129
:10E91000D36F000ED26FD2C0D6F0D3C0D7F0D46977
:10E92000D56948C0D9FF49C0DAFFDECFF6FFDDCF99
:10E93000F7FFF86A0800F5502E0AD8A4A2EF74F089
:10E94000A4EF74F023EF75F0000ED56F000ED46FB6
:10E9500048C0D9FF49C0DAFFDE2A000EDD2248C0D8
:10E96000D9FF49C0DAFFDECFF6FFDDCFF7FFF86A47
:10E970000800F5502A0AD8A4C0EF74F0C2EF74F072
:10E98000DFEF74F048C0D9FF49C0DAFFDE2A000E7D
:10E99000DD224AC0D9FF4BC0DAFFDFCF4CF0020EB8
:10E9A000DE26DFCF4DF0000EDD224CC0D9FF4DC07A
:10E9B000DAFFDECFD4F0DDCFD5F023EF75F048C01D
:10E9C000D9FF49C0DAFFDECF08F0DDCF09F0EDEC6A
:10E9D0006CF008C0D4F009C0D5F0F6EF74F048C070
:10E9E000D9FF49C0DAFFDE2A000EDD22D00E4C6EC0
:10E9F000FF0E4D6E48C0D9FF49C0DAFFDECFF6FFEB
:10EA0000DDCFF7FFF86A0800F5504E6E4F6A4C50A4
:10EA10004E264D504F224F500AE10A0E4E5CD8A0B0
:10EA200014EF75F017EF75F0010E18EF75F0000E8A
:10EA3000506E516A50505110D8A421EF75F023EF59
:10EA400075F0EFEF74F048C0D9FF49C0DAFFDECFB0
:10EA5000F6FFDDCFF7FFF86A0800F550076E086A89
:10EA60003AEC64F00750586E5850D8B43AEF75F04D
:10EA70003CEF75F076EF75F048C0D9FF49C0DAFF7A
:10EA8000DECF4CF0DDCF4DF0010E4C26000E4D22B6
:10EA90004CC0F6FF4DC0F7FFF86A0800F550076E4E
:10EAA000086A3AEC64F00750596E5950D8B45BEFDD
:10EAB00075F05DEF75F076EF75F048C0D9FF49C08D
:10EAC000DAFFDECF4CF0DDCF4DF0020E4C26000E0B
:10EAD0004D224CC0F6FF4DC0F7FFF86A0800F55014
:10EAE000076E086A3AEC64F007505A6E660E5818C2
:10EAF000D8A47DEF75F07FEF75F0C0EF75F048C0DA
:10EB0000D9FF49C0DAFFDECFF6FFDDCFF7FFF86AA5
:10EB10000800F5CF5BF048C0D9FF49C0DAFFDE2A14
:10EB2000000EDD224AC0D9FF4BC0DAFFDFCF4CF028
:10EB3000040EDE26DFCF4DF0000EDD224CC0D9FFE3
:10EB40004DC0DAFFDECF54F0DECF55F0DECF56F009
:10EB5000DECF57F046C03AF047C03BF054C03CF01F
:10EB600055C03DF056C03EF057C03FF05BC040F08E
:10EB700008EC79F03AC046F03BC047F0A7EF76F0DA
:10EB8000580E016E000E026EF90E036EFF0E046E3B
:10EB9000000E066E020E056E5FEC69F00150021069
:10EBA000D8A4D5EF75F0D7EF75F054EF76F048C0E4
:10EBB000D9FF49C0DAFFDECF4CF0DDCF4DF0010EBA
:10EBC0004C26000E4D224CC0F6FF4DC0F7FFF86AF0
:10EBD0000800F5CF5BF0BF0E4C6EFF0E4D6E48C0C7
:10EBE000D9FF49C0DAFFDECFF6FFDDCFF7FFF86AC5
:10EBF0000800F5504E6E4F6A4C504E264D504F2235
:10EC00004F500AE11A0E4E5CD8A009EF76F00CEFD7
:10EC100076F0010E0DEF76F0000E526E536A5250F0
:10EC20005310D8B416EF76F018EF76F032EF76F096
:10EC30004AC0D9FF4BC0DAFFDFCF4CF0040EDE260E
:10EC4000DFCF4DF0000EDD224CC0D9FF4DC0DAFF02
:10EC5000DECF54F0DECF55F0DECF56F0DECF57F0EA
:10EC60004AEF76F04AC0D9FF4BC0DAFFDFCF4CF055
:10EC7000040EDE26DFCF4DF0000EDD224CC0D9FFA2
:10EC80004DC0DAFFDECF54F0DECF55F0DECF56F0C8
:10EC9000DECF57F0020E48C0D9FF49C0DAFFDE26AA
:10ECA000000EDD22AAEF75F048C0D9FF49C0DAFF97
:10ECB000DECFF6FFDDCFF7FFF86A0800F550250A32
:10ECC000D8A465EF76F067EF76F07EEF76F048C077
:10ECD000D9FF49C0DAFFDE2A000EDD22000E026EE7
:10ECE000250E016E46C003F047C004F0FAEC68F050
:10ECF000000E476E010E466EA7EF76F048C0D9FFB2
:10ED000049C0DAFFDE2A000EDD22000E476E000E3B
:10ED1000466EA7EF76F048C0D9FF49C0DAFFDECFD4
:10ED2000F6FFDDCFF7FFF86A0800F550016E026AC2
:10ED300046C003F047C004F0FAEC68F048C0D9FFC1
:10ED400049C0DAFFDE2A000EDD2278EF76F01200ED
:10ED50000450800B0D6E045004240F6E03AEB3EF0D
:10ED600076F0B5EF76F0B6EF76F00F800F50D8B4AE
:10ED7000BCEF76F0BEEF76F0D3EF76F00F28D8A494
:10ED8000C4EF76F0C6EF76F0CEEF76F0000E016EAF
:10ED9000000E026E000E036E000E046E038E000E57
:10EDA000046EDBEF76F0000E016E000E026E000EB8
:10EDB000036E000E046E0850800B0E6E0D500E1880
:10EDC000D8B4E5EF76F0E7EF76F0E8EF76F00D8C6B
:10EDD000085008240E6E07AEF0EF76F0F2EF76F0F2
:10EDE000F3EF76F00E800E50D8B4F9EF76F0FBEF2B
:10EDF00076F010EF77F00E28D8A401EF77F003EF4C
:10EE000077F00BEF77F0000E056E000E066E000E29
:10EE1000076E000E086E078E000E086E18EF77F072
:10EE2000000E056E000E066E000E076E000E086ED8
:10EE30000F500E5CD8B01FEF77F021EF77F048EF5E
:10EE400077F00DAC26EF77F028EF77F02AEF77F028
:10EE5000800E0D1A0FC010F00EC00FF010C00EF093
:10EE600001C010F005C001F010C005F002C010F0A4
:10EE700006C002F010C006F003C010F007C003F097
:10EE800010C007F004C010F008C004F010C008F073
:10EE9000000E106E0F500EC009F00A6A095E000ED7
:10EEA0000A5A0ABE5DEF77F00A5009E11A0E095CB2
:10EEB000D8A05DEF77F05FEF77F096EF77F0015035
:10EEC000021003100410D8A468EF77F06BEF77F00E
:10EED000010E6CEF77F0000E106E000E016E000E4A
:10EEE000026E000E036E000E046E0EC00FF09FEF58
:10EEF00077F010A07EEF77F080EF77F086EF77F075
:10EF0000D89010300109106E88EF77F0D890103249
:10EF100001A08DEF77F08FEF77F090EF77F0108E04
:10EF2000043404320332023201320F2A0E500F5CD5
:10EF3000D8A09DEF77F09FEF77F079EF77F00DBCD9
:10EF4000A4EF77F0A6EF77F0E6EF77F00F50D8A4B4
:10EF5000ACEF77F0AEEF77F0B8EF77F0000E016E20
:10EF6000000E026E000E036E000E046E07EF79F0C5
:10EF700005500126065002220750032208500422A1
:10EF800004A0C5EF77F0C7EF77F073EF78F010A02B
:10EF9000CCEF77F0CEEF77F0D4EF77F0D890103059
:10EFA0000109106ED6EF77F0D890103201A0DBEF98
:10EFB00077F0DDEF77F0DEEF77F0108E0434043277
:10EFC0000332023201320F2A73EF78F00550015CF0
:10EFD00006500258075003580450800A096E085022
:10EFE000800A0958D8B0F7EF77F0F9EF77F024EFFF
:10EFF00078F00150055C096E025006580A6E035005
:10F0000007580B6E045008580C6EFF0E0924016E51
:10F01000FF0E0A20026EFF0E0B20036EFF0E0C2067
:10F02000046E800E0D1A106C1050D8A41AEF78F0F0
:10F030001CEF78F02CEF78F0010E0126000E022272
:10F04000032204222CEF78F00550015E0650025A8C
:10F050000750035A0850045A0150021003100410BC
:10F06000D8A435EF78F037EF78F06CEF78F01050E7
:10F07000D8A43DEF78F03FEF78F06CEF78F0000E19
:10F08000016E000E026E000E036E000E046E07EF9E
:10F0900079F0D890013602360336043610AE53EFBD
:10F0A00078F055EF78F056EF78F0018010A05BEF24
:10F0B00078F05DEF78F061EF78F0D880103663EF8C
:10F0C00078F0D89010360F50D8B469EF78F06BEF25
:10F0D00078F06CEF78F00F0603AE71EF78F073EF15
:10F0E00078F049EF78F0000E0E6E10AE7AEF78F0FF
:10F0F0007CEF78F094EF78F010C009F07F0E0916DD
:10F10000D8B485EF78F087EF78F08BEF78F0010EC8
:10F110000E6E94EF78F001A090EF78F092EF78F017
:10F1200094EF78F087EF78F00E50D8B49AEF78F03B
:10F130009CEF78F0C7EF78F0010E0126000E022256
:10F140000322042204A0A7EF78F0A9EF78F0C7EF1C
:10F1500078F001C009F002C00AF003C00BF004C04F
:10F160000CF00C340C320B320A32093209C001F0B7
:10F170000AC002F00BC003F00CC004F00F28D8B492
:10F18000C4EF78F0C6EF78F0C7EF78F00F2A0F28B9
:10F19000D8B4CDEF78F0CFEF78F0D7EF78F00F500C
:10F1A000D8A4D5EF78F0D7EF78F0E9EF78F0000E3B
:10F1B000016E000E026E000E036E000E046E0F5004
:10F1C000D8A4E5EF78F0E7EF78F0E9EF78F0000EFB
:10F1D0000D6E0FA0EEEF78F0F0EF78F0F3EF78F02F
:10F1E000038EF4EF78F0039ED8900F30046E0DAECE
:10F1F000FCEF78F0FEEF78F0FFEF78F0048E01C0BE
:10F2000001F002C002F003C003F004C004F01200D9
:10F21000000E00017B6F000E7A6F3CC08CF03DC089
:10F220008DF03EC08EF03FC08FF08FBF1CEF79F0A5
:10F230001AEF79F032EF79F0000E7B6F010E7A6FE2
:10F240008CC001F08DC002F08EC003F08FC004F0BE
:10F250009FEC62F001C08CF002C08DF003C08EF014
:10F2600004C08FF0000E0001936F000E926FD2C0A9
:10F270007FF0D3C080F07A517B11D8A442EF79F0AF
:10F2800044EF79F04BEF79F0D6A549EF79F04BEFE9
:10F2900079F065EF79F07A517B11D8A452EF79F0CB
:10F2A00054EF79F05AEF79F0000E656F2B0E646F12
:10F2B0005EEF79F0000E656F2D0E646F64C074F11F
:10F2C000924B932B7F07D8A080078CC001F08DC094
:10F2D00002F08EC003F08FC004F0CDEC69F00104A1
:10F2E0000210D8A476EF79F078EF79F0CFEF79F0CB
:10F2F000BF0E416EFF0E426E4050436E446A415055
:10F3000043264250442244500AE11A0E435CD8A0DE
:10F310008CEF79F08FEF79F0010E90EF79F0000E1D
:10F320000001666F676B66516711D8B49AEF79F088
:10F330009CEF79F0AAEF79F0740E9225016E010E20
:10F340009321026EE50E036EFF0E046E0BEC64F06B
:10F35000B6EF79F0740E9225016E010E9321026EC4
:10F36000ED0E036EFF0E046E0BEC64F00001FD0E5B
:10F370007F27FF0E80233AC011F03BC012F0740EBD
:10F38000136E010E146E7FC015F080C016F097EC5E
:10F3900068F011C03AF012C03BF0DFEF7EF08CC095
:10F3A00001F08DC002F08EC003F08FC004F0CDECF0
:10F3B00069F001500210D8A4E0EF79F0E2EF79F0A3
:10F3C00022EF7AF0BF0E416EFF0E426E4050436E48
:10F3D000446A415043264250442244500AE11A0EE6
:10F3E000435CD8A0F6EF79F0F9EF79F0010EFAEF6F
:10F3F00079F0000E0001686F696B68516911D8B42B
:10F4000004EF7AF006EF7AF014EF7AF0740E92259A
:10F41000016E010E9321026EE90E036EFF0E046E63
:10F420000BEC64F0B6EF79F0740E9225016E010ECC
:10F430009321026EF10E036EFF0E046E0BEC64F06E
:10F44000B6EF79F0000E0001946F000E956F800EFC
:10F45000966F3F0E976F000E916F000E906F8CC0ED
:10F4600001F08DC002F08EC003F08FC004F0000EDA
:10F47000056E000E066E000E076E000E086E26EC7E
:10F4800067F0D8B046EF7AF048EF7AF0CBEF7AF039
:10F4900067EF7AF094C015F095C016F096C017F09B
:10F4A00097C018F0000E196E000E1A6E200E1B6E1B
:10F4B000410E1C6E57EC72F015C094F016C095F01A
:10F4C00017C096F018C097F00001904B912B8CC09C
:10F4D0002EF08DC02FF08EC030F08FC031F0000EB6
:10F4E000196E000E1A6E200E1B6E410E1C6E94C01B
:10F4F00015F095C016F096C017F097C018F057ECAD
:10F5000072F015C032F016C033F017C034F018C0D6
:10F5100035F04CEC6AF0D8B090EF7AF092EF7AF0D8
:10F520004AEF7AF0B2EF7AF094C001F095C002F0A1
:10F5300096C003F097C004F0000E056E000E066E34
:10F54000200E076E410E086E8AEC70F001C094F038
:10F5500002C095F003C096F004C097F00001900738
:10F56000D8A091078CC02EF08DC02FF08EC030F047
:10F570008FC031F094C032F095C033F096C034F0B3
:10F5800097C035F04CEC6AF0D8A0C9EF7AF0CBEF19
:10F590007AF094EF7AF040C007F0086A3AEC64F031
:10F5A00007500001816F81C07EF0670E8119D8A4D9
:10F5B000DCEF7AF0DEEF7AF004EF7BF0D451D51176
:10F5C000D8A4E5EF7AF0E7EF7AF0EBEF7AF0000EEF
:10F5D000D56F010ED46FD5BFF8EF7AF0D55106E1A3
:10F5E000D405D8B0F6EF7AF0F8EF7AF0FEEF7AF0C3
:10F5F000000E7D6F060E7C6F0DEF7BF0D4C07CF0AB
:10F60000D5C07DF00DEF7BF0D5BF09EF7BF00BEFA0
:10F610007BF0F8EF7AF0FEEF7AF0670E8119D8A44C
:10F6200014EF7BF016EF7BF045EF7BF091AF24EF0A
:10F630007BF0FC0E905DFF0E9159D8A022EF7BF07D
:10F6400024EF7BF043EF7BF0FF0E416EFF0E426E26
:10F650007CC043F07DC044F04150432642504422D8
:10F660009051435C4450800A456E9151800A455840
:10F67000D8A03DEF7BF03FEF7BF043EF7BF0660ED1
:10F680007E6F45EF7BF0650E7E6F7CC074F07DC0B1
:10F6900075F0670E8119D8A450EF7BF052EF7BF024
:10F6A00062EF7BF0660E7E19D8A459EF7BF05BEF1A
:10F6B0007BF064EF7BF091BF62EF7BF060EF7BF05B
:10F6C00064EF7BF0744B752B660E7E19D8A46BEF3C
:10F6D0007BF06DEF7BF08DEF7BF091BF74EF7BF0F3
:10F6E00072EF7BF080EF7BF0000E946F000E956F51
:10F6F000800E966F3F0E976F000E916F000E906F09
:10F70000670E8119D8B487EF7BF089EF7BF08DEF1E
:10F710007BF09051742791517523000E8B6F000E72
:10F720008A6F8CC082F08DC083F08EC084F08FC051
:10F7300085F094C060F095C061F096C062F097C00B
:10F7400063F01EEF7CF082C001F083C002F084C041
:10F7500003F085C004F094C005F095C006F096C093
:10F7600007F097C008F08AEC70F001C01AF002C0F0
:10F770001BF003C01CF004C01DF081EC6FF01AC038
:10F7800086F01BC087F01CC088F01DC089F086C0C1
:10F7900001F087C002F088C003F089C004F0CEEC0D
:10F7A0006AF001C078F002C079F082C02EF083C008
:10F7B0002FF084C030F085C031F094C019F095C0AE
:10F7C0001AF096C01BF097C01CF086C015F087C0D9
:10F7D00016F088C017F089C018F057EC72F015C009
:10F7E00032F016C033F017C034F018C035F03BECDF
:10F7F00063F02EC082F02FC083F030C084F031C09F
:10F8000085F094C001F095C002F096C003F097C057
:10F8100004F0000E056E000E066E200E076E410EFF
:10F82000086E8AEC70F001C094F002C095F003C03D
:10F8300096F004C097F000018A4B8B2B74518A5DBF
:10F840008B51800A416E7551800A4158D8A02BEF28
:10F850007CF02DEF7CF0A3EF7BF094C015F095C009
:10F8600016F096C017F097C018F0000E196E000E33
:10F870001A6EA00E1B6E400E1C6E57EC72F015C077
:10F8800086F016C087F017C088F018C089F082C0D3
:10F890002EF083C02FF084C030F085C031F086C0D8
:10F8A00032F087C033F088C034F089C035F04CECBA
:10F8B0006AF0D8B05EEF7CF060EF7CF06BEF7CF02C
:10F8C000000E0001866F000E876F000E886F000E1D
:10F8D000896F94EF7CF082C001F083C002F084C095
:10F8E00003F085C004F086C005F087C006F088C02C
:10F8F00007F089C008F026EC67F0D8A082EF7CF012
:10F9000084EF7CF094EF7CF0000178B18AEF7CF01A
:10F910008CEF7CF094EF7CF0000E866F000E876F0A
:10F92000000E886F000E896F8CC001F08DC002F050
:10F930008EC003F08FC004F086C005F087C006F0CB
:10F9400088C007F089C008F0A8EC76F001C082F00A
:10F9500002C083F003C084F004C085F060C094F05E
:10F9600061C095F062C096F063C097F0650E00012B
:10F970007E19D8B4BEEF7CF0C0EF7CF0C6EF7CF00F
:10F9800090C076F091C077F0CAEF7CF0000E776FF0
:10F99000000E766F000E736F000E726F000E716FA7
:10F9A000000E706F000E8B6F000E8A6FC5EF7DF03A
:10F9B00082C001F083C002F084C003F085C004F06F
:10F9C00094C005F095C006F096C007F097C008F007
:10F9D0008AEC70F001C01AF002C01BF003C01CF0EA
:10F9E00004C01DF081EC6FF01AC086F01BC087F0D8
:10F9F0001CC088F01DC089F086C001F087C002F0ED
:10FA000088C003F089C004F0CEEC6AF001C078F041
:10FA100002C079F00001D6B910EF7DF012EF7DF051
:10FA20002FEF7DF078517911D8A419EF7DF01BEFFD
:10FA30007DF02FEF7DF0670E8119D8A422EF7DF0C5
:10FA400024EF7DF02FEF7DF077BF2BEF7DF029EFD6
:10FA50007DF02FEF7DF0704B712B79EF7DF07251BF
:10FA60007311D8A436EF7DF038EF7DF062EF7DF0B2
:10FA700077BF3FEF7DF03DEF7DF062EF7DF0740EDC
:10FA80009225D96E010E9321DA6E2E0EDF6E924B07
:10FA9000932B7F07D8A08007000E736F010E726F43
:10FAA00062EF7DF0740E9225D96E010E9321DA6E0D
:10FAB000300EDF6E924B932B7F07D8A08007700724
:10FAC000D8A0710770517111D8A469EF7DF06BEF68
:10FAD0007DF052EF7DF0740E9225D96E010E9321C8
:10FAE000DA6E7851300FDF6E924B932B7F07D8A0E0
:10FAF000800782C02EF083C02FF084C030F085C014
:10FB000031F094C019F095C01AF096C01BF097C060
:10FB10001CF086C015F087C016F088C017F089C0A9
:10FB200018F057EC72F015C032F016C033F017C061
:10FB300034F018C035F03BEC63F02EC082F02FC0DB
:10FB400083F030C084F031C085F094C001F095C0DE
:10FB500002F096C003F097C004F0000E056E000E90
:10FB6000066E200E076E410E086E8AEC70F001C022
:10FB700094F002C095F003C096F004C097F0000125
:10FB80007607D8A077078A4B8B2B74518A5D8B51EF
:10FB9000800A416E7551800A4158D8B0D2EF7DF08D
:10FBA000D4EF7DF0E2EF7DF093BFE0EF7DF0935175
:10FBB00009E14B0E925DD8A0E0EF7DF0E2EF7DF021
:10FBC000D8EF7CF072517311D8A4E9EF7DF0EBEF20
:10FBD0007DF0FCEF7DF0D6A9F0EF7DF0F2EF7DF047
:10FBE000FCEF7DF0740E9225D96E010E9321DA6E32
:10FBF0002E0EDF6E924B932B740E9225D96E010E52
:10FC00009321DA6E000EDF6E650E7E19D8A40BEF1D
:10FC10007EF00DEF7EF0BBEF79F0000E8B6F4F0E94
:10FC20008A6F740E8A25D96E010E8B21DA6E000E52
:10FC3000DF6E000E7B6F000E7A6F91BF24EF7EF0B7
:10FC400022EF7EF02CEF7EF0000E7B6F010E7A6FBC
:10FC5000906D911FD8B0912B000E7D6F020E7C6FBE
:10FC60005DEF7EF08A07D8A08B07740E8A25D96EC7
:10FC7000010E8B21DA6E90C001F091C002F0000EEF
:10FC8000046E0A0E036E7BEC67F00150300FDF6EDE
:10FC900090C001F091C002F0000E046E0A0E036ED7
:10FCA00035EC68F001C090F002C091F000017C07D3
:10FCB000D8A07D077F07D8A0800790519111D8A4C4
:10FCC00064EF7EF066EF7EF032EF7EF07DBF73EF83
:10FCD0007EF07D5106E17C05D8B071EF7EF073EFC8
:10FCE0007EF032EF7EF08A07D8A08B077A517B1125
:10FCF000D8A47DEF7EF07FEF7EF085EF7EF0000EE2
:10FD00006B6F2B0E6A6F89EF7EF0000E6B6F2D0EFE
:10FD10006A6F740E8A25D96E010E8B21DA6E6AC065
:10FD2000DFFF7F07D8A080078A07D8A08B07BF0E08
:10FD3000416EFF0E426E4050436E446A415043266E
:10FD40004250442244500AE11A0E435CD8A0ABEF63
:10FD50007EF0AEEF7EF0010EAFEF7EF0000E6E6F24
:10FD60006F6B6E516F11D8A4B8EF7EF0BAEF7EF0D2
:10FD7000C0EF7EF0000E6D6F650E6C6FC4EF7EF00D
:10FD8000000E6D6F450E6C6F740E8A25D96E010ED4
:10FD90008B21DA6E6CC0DFFF7F07D8A08007740E5E
:10FDA0009225016E010E9321026E740E8A25036E58
:10FDB000010E8B21046E0BEC64F0BBEF79F01200A6
:10FDC000007EC1A2C1B2C1A6CFA6CD8AC15ACB2A9C
:10FDD000C132C13AC142C14AC152C15AC196C19A47
:10FDE000C9000000000000005F00000007000700DD
:10FDF000147F147F14242A7F2A1223130864623686
:10FE0000495522500005030000001C22410000411A
:10FE1000221C0014083E081408083E080800503050
:10FE200000000808080808006060000020100804AE
:10FE3000023E5149453E00427F40004261514946E1
:10FE40002141454B311814127F1027454545393C57
:10FE50004A4949300171090503364949493606497D
:10FE600049291E00363600000056360000081422CC
:10FE70004100141414141400412214080201510901
:10FE800006324979413E7E1111117E7F494949363A
:10FE90003E414141227F4141221C7F494949417FE6
:10FEA000090909013E4149497A7F0808087F004154
:10FEB0007F41002040413F017F081422417F4040A4
:10FEC00040407F020C027F7F0408107F3E41414189
:10FED0003E7F090909063E4151215E7F09192946E5
:10FEE000464949493101017F01013F4040403F1FE0
:10FEF0002040201F3F4038403F6314081463070828
:10FF00007008076151494543007F414100020408E0
:10FF100010200041417F00040201020440404040A3
:10FF200040000102040020545454787F484444386F
:10FF30003844444420384444487F385454541808C2
:10FF40007E0901020C5252523E7F0804047800449C
:10FF50007D40002040443D007F1028440000417F48
:10FF600040007C041804787C080404783844444435
:10FF7000387C14141408081414187C7C0804040831
:10FF80004854545420043F4440203C4040207C1CB2
:10FF90002040201C3C4030403C44281028440C5059
:10FFA00050503C4464544C44000836410000007FEB
:10FFB0000000004136080010080810087846414645
:10FFC00078506F74656E6369613A2000436F727296
:10FFD000656E74653A200054656E73616F3A200057
:10FFE000252E326600494E46004E414E00696E662F
:10FFF000006E616E004F4C41006C66004F4900007E
:020000040020DA
:08000000FFFFFFFFFFFFFFFF00
:020000040030CA
:0E00000015087F7CFF8991FF0FC00FE00F40B5
:00000001FF
