:04000000BDEF61F0FF
:10BFCE0012009E961200C69A12009D961200C5800F
:10BFDE001200C5821200C5841200010E1200050E59
:10BFEE001200C5861200C95012009E861200C58A24
:10BFFE00C5881200C59AC5881200FFEC60F0C58294
:10C00E001200FFEC60F0C5801200FFEC60F0C584FA
:10C01E001200016E01C0C9FF1200F0EC5FF0010EBC
:10C02E001200F0EC5FF0020E1200F0EC5FF0010E69
:10C03E001200F2EC5FF0000E120001EC60F0050E43
:10C04E001200FEEC5FF00A0E1200FEEC5FF0090E1D
:10C05E001200000E80EC62F01200FFEC60F002C0E5
:10C06E00C9FF120025EC61F068EC60F012000101CE
:10C07E007393000E726F0E0E120001017391F8ECA5
:10C08E005FF0040E120001017393000E726F0E0E1C
:10C09E00120001017381D8806C3510EC60F0050E32
:10C0AE001200010173816C516C2510EC60F0030ECF
:10C0BE0012009EA665EF60F067EF60F060EF60F033
:10C0CE001200600ED36E000ED26E000E9B6E000E2E
:10C0DE009A6E1200000EC76E080EC66E000EC56E6A
:10C0EE00130EC86EC69A1200C5BC80EF60F083EFC7
:10C0FE0060F0010E84EF60F0000E120006C001F039
:10C10E0007C002F008C003F009C004F0000EF9ECFD
:10C11E0064F0120006C001F007C002F008C003F080
:10C12E0009C004F0020EF9EC64F012001A6E1A50F7
:10C13E00B0091B6E1B50DCEC60F0000EDCEC60F006
:10C14E00100EDCEC60F01200B1EF60F060EC60F00D
:10C15E0089EC64F0010173B3B7EF60F0B9EF60F0F2
:10C16E00ADEF60F01200C6BABFEF60F0C1EF60F045
:10C17E00CAEF60F0000EC76E080EC66E000EC56EDA
:10C18E00130EC86EC68A1200176E400E186E17C0B8
:10C19E0019F0180E126E000E136E000E156E020EB2
:10C1AE00146E3C0E39EC63F01200176E000E186E12
:10C1BE0017C019F0180E126E000E136E000E156ECB
:10C1CE00020E146E3C0E39EC63F01200010173A7DF
:10C1DE00F3EF60F0F5EF60F0FEEF60F001C06DF18F
:10C1EE0002C06EF103C06FF104C070F173971200BC
:10C1FE00C7B404EF61F006EF61F0FFEF60F0C5CF5A
:10C20E0001F01F0E0116D8A40FEF61F011EF61F0CF
:10C21E00FFEF60F0120001500302F3CF05F0F4CFF0
:10C22E0006F001500402F350062602500302F350AA
:10C23E00062605C001F006C002F01200000E896E3F
:10C24E00000E8A6E000E8B6EEF0E926E9368BF0E0E
:10C25E00946EDF0E0F015D6F7F0E5C6F000E5B6FD5
:10C26E00F18E1200010E016E010173B341EF61F008
:10C27E0043EF61F04DEF61F073956C69E8EC5FF0A0
:10C28E00ECEC5FF0EAEC5FF072C101F001501200CD
:10C29E000AC001F00BC002F0000E046E020E036E17
:10C2AE00EDEC60F0000E066E000E076E000E086ECE
:10C2BE00000E096E85EC60F0040E12000AC001F04B
:10C2CE000BC002F0000E046E010E036EEDEC60F07A
:10C2DE00000E066E000E076E000E086E000E096E42
:10C2EE0085EC60F0020E12000AC001F00BC002F0E5
:10C2FE00000E046E020E036EEDEC60F0000E066E84
:10C30E00000E076E000E086E000E096E85EC60F0D2
:10C31E00020E12000AC001F00BC002F0000E046EF5
:10C32E00010E036EEDEC60F0000E066E000E076E51
:10C33E00000E086E000E096E85EC60F0040E120001
:10C34E00000E1B6E000E1A6E000ECBEC60F01A4A39
:10C35E001B2A1BBEBAEF61F0040E1B5CD8A0BAEF0D
:10C36E0061F0BCEF61F0ABEF61F0120001EEC4F0D2
:10C37E0018EE00F0EE6AE550E150FCE1E250FAE111
:10C38E0001EE00F0C40EEE6AE806FDE100EEAEF03E
:10C39E00410EEE6AE806FDE10001FCEF6DF0FFECE8
:10C3AE0060F0C586FFEC60F0C9CF04F0056AFFECC3
:10C3BE0060F002500310D8B4E7EF61F0EAEF61F0DD
:10C3CE00C58AEBEF61F0C59AC58804C002F005C0BE
:10C3DE0003F0120001C003F002C004F0F9EF61F0A7
:10C3EE00014A022A01C0D9FF02C0DAFFDF50D8A4E9
:10C3FE0003EF62F005EF62F0F7EF61F00350015CBE
:10C40E00016E04500258026E1200D00E036EFF0E23
:10C41E00046E01C005F002C006F00350052604505C
:10C42E00062206500AE10A0E055CD8A021EF62F042
:10C43E0024EF62F0010E25EF62F0000E016E026A2B
:10C44E0012000150021003100410D8B431EF62F044
:10C45E0033EF62F03BEF62F0000E011A000E021A8B
:10C46E00000E031A800E041A01C001F002C002F081
:10C47E0003C003F004C004F01200BF0E036EFF0EE3
:10C48E00046E01C005F002C006F0035005260450EC
:10C49E00062206500AE11A0E055CD8A059EF62F08A
:10C4AE005CEF62F0010E5DEF62F0000E016E026A4B
:10C4BE00120020EE02F00A50D9260B50DA22DECFFF
:10C4CE0001F0DDCF02F00AC0D9FF0BC0DAFFDECFDC
:10C4DE0003F0DDCF04F0EDEC60F0000E066E000E02
:10C4EE00076E000E086E000E096E85EC60F0020EEF
:10C4FE001200106E010E116E010173B389EF62F01E
:10C50E008BEF62F0A0EF62F07383000E116E10508D
:10C51E00D8B494EF62F096EF62F09AEF62F0010EEB
:10C52E00716F9CEF62F0020E716FEEEC5FF0ABEC90
:10C53E0060F011501200000E106E000E0F6EB3EF71
:10C54E0062F00EC001F0026A0CC003F00DC004F0E0
:10C55E0083EC68F00F4A102A0F500A24D96E10503F
:10C56E000B20DA6EDF500E6E0E50D8A4C1EF62F0C3
:10C57E00C3EF62F0A8EF62F01200000E321A000E46
:10C58E00331A000E341A800E351A2EC001F02FC049
:10C59E0002F030C003F031C004F032C005F033C0F9
:10C5AE0006F034C007F035C008F00BEC76F001C091
:10C5BE002EF002C02FF003C030F004C031F0120094
:10C5CE00010E076E200E01180210D8B4F1EF62F0C2
:10C5DE00F3EF62F00CEF63F0F70E036EFF0E046ED6
:10C5EE0001C005F002C006F00350052604500622D5
:10C5FE00065009E1050E055CD8A008EF63F00AEFBE
:10C60E0063F00CEF63F0000E076E07C001F0026AD4
:10C61E001200A20E0001A66F000EA76F9EC0A8F01A
:10C62E009FC0A9F0000EAB6F000EAA6F000EAD6F8B
:10C63E00000EAC6FA80E986F000E996FA0C09AF006
:10C64E00A1C09BF0A60E9C6F000E9D6F24EC64F0B3
:10C65E000001AA519E25D96EAB519F21DA6E000EB4
:10C66E00DF6E1200166E165074EC65F00009D8B429
:10C67E0043EF63F045EF63F03AEF63F012C001F061
:10C68E0013C002F014C003F015C004F0EDEC60F01E
:10C69E00000E066E000E076E000E086E000E096E7E
:10C6AE0091EC60F030EC60F039EC61F0E806D8B453
:10C6BE0063EF63F065EF63F05BEF63F01200280E3B
:10C6CE00C66E000EC56E000E016E120E026E7A0E52
:10C6DE00036E000E046E0EC012F00FC013F010C0E9
:10C6EE0014F011C015F0020ED8901236133614360F
:10C6FE001536E82E7BEF63F012C005F013C006F07E
:10C70E0014C007F015C008F00AEC66F00104C86EFC
:10C71E00000EC76E94869488120003C007F004C002
:10C72E0008F001C009F002C00AF00750056E08506B
:10C73E00066E074A082A05C0F6FF06C0F7FF000E70
:10C74E00F86E09C0D9FF0AC0DAFF094A0A2A0E0E8E
:10C75E00F76403D00800F55005D0F6CFE9FFF7CF08
:10C76E00EAFFEF50DF6EDF50D8A4C0EF63F0C2EFE8
:10C77E0063F09CEF63F01200BF0E096EFF0E0A6E9F
:10C78E0007C00BF008C00CF009500B260A500C2203
:10C79E000C500AE11A0E0B5CD8A0D8EF63F0DBEF59
:10C7AE0063F0010EDCEF63F0000E0D6E0E6A0D509D
:10C7BE000E10D8B4E5EF63F0E7EF63F0EEEF63F041
:10C7CE00200E0710076E0850086EF2EF63F007C0D8
:10C7DE0007F008C008F012000AEF64F021C0F6FF5F
:10C7EE0022C0F7FF000EF86E0E0EF76403D008009D
:10C7FE00F55005D0F6CFE9FFF7CFEAFFEF50C1ECC9
:10C80E0064F0214A222A21C0F6FF22C0F7FF000E53
:10C81E00F86E0E0EF76403D00800F55005D0F6CF73
:10C82E00E9FFF7CFEAFFEF500009D8A421EF64F03B
:10C83E0023EF64F0F5EF63F012009AC05CF09BC03A
:10C84E005DF0000E0001CF6F000ECE6F42EF64F070
:10C85E0098C046F099C047F05C0E486E000E496EC7
:10C86E009CC04AF09DC04BF0CFEC73F046500001D7
:10C87E00CE274750CF235CC0F6FF5DC0F7FFF86AA6
:10C88E000800F5500009D8A44FEF64F051EF64F0A2
:10C89E002FEF64F0CEC098F0CFC099F012000101D6
:10C8AE007391020E726F64EF64F01CEC60F088EF0F
:10C8BE0064F020EC60F088EF64F060C10AF061C1B2
:10C8CE000BF002D874EF64F00500FA6E5451FD6E51
:10C8DE005551FE6EFF6AFA5012000C6E0D6A0D5025
:10C8EE00000AD8B47DEF64F060EF64F00C50020AD9
:10C8FE00D8B45CEF64F0010AD8B45CEF64F060EF7A
:10C90E0064F01200E8EC5FF0010173A191EF64F0A6
:10C91E0093EF64F0A0EF64F07BEC60F00009D8B404
:10C92E009BEF64F09DEF64F0A0EF64F00F0E010139
:10C93E00716F01017151020DAF0EF324F66EFD0EF3
:10C94E00F420F76EF86A000EF8220900F5CF0EF00B
:10C95E000900F5CF0FF002D8BEEF64F00500FA6EB5
:10C96E000E50FD6E0F50FE6EFF6AFA50120001015E
:10C97E00716F12001E6E000E206E000E1F6E600E86
:10C98E001A6EFF0E1B6E1E50050DCF0E1C6EFD0E89
:10C99E001D6EF3501C26F4501D221F501C262050D5
:10C9AE001D221A501C261B501D221CC0F6FF1DC036
:10C9BE00F7FFF86A0800F550CBEC60F01F4A202A0A
:10C9CE0020BEF3EF64F0205009E1050E1F5CD8A0E5
:10C9DE00F3EF64F0F5EF64F0C6EF64F0000ECBEC0D
:10C9EE0060F01200056E01500210D8B401EF65F030
:10C9FE0003EF65F01DEF65F00550020D500EF324A8
:10CA0E00D96E010EF420DA6E01C0DEFF02C0DDFF2A
:10CA1E000550020D5C0EF324D96E010EF420DA6E71
:10CA2E0003C0DEFF04C0DDFF35EF65F00550020DDB
:10CA3E00500EF324D96E010EF420DA6EE80EDE6E7F
:10CA4E00BF0EDD6E0550020D5C0EF324D96E010E85
:10CA5E00F420DA6E000EDE6E000EDD6E12000101A5
:10CA6E00738747EF65F01CEC60F073EF65F0FCEC3C
:10CA7E005FF0030E73EF65F020EC60F073EF65F07E
:10CA8E005CC10AF05DC10BF002D857EF65F00500EE
:10CA9E00FA6E5051FD6E5151FE6EFF6AFA50120041
:10CAAE000C6E0D6A0D50000AD8B460EF65F043EFBE
:10CABE0065F00C50010AD8B443EF65F0030AD8B400
:10CACE003AEF65F0010AD8B43AEF65F0070AD8B428
:10CADE003EEF65F043EF65F01200016E010E026E3F
:10CAEE00010173B57DEF65F07FEF65F0B9EF65F08D
:10CAFE0001C06CF17393738573910E0E716F010EFD
:10CB0E006B6FF40E6A6F7387E80E506FBF0E516F26
:10CB1E00000E5C6F000E5D6FE80E526FBF0E536F0E
:10CB2E00000E5E6F000E5F6FE80E546FBF0E556FF6
:10CB3E00000E606F000E616FE80E566FBF0E576FDE
:10CB4E00000E626F000E636FEC0E586FBF0E596FC2
:10CB5E00000E646F000E656FE8EC5FF0BAEC60F0EB
:10CB6E00000E026E02501200AE0EDCEC60F0D50E1E
:10CB7E00DCEC60F0800EDCEC60F0A80EDCEC60F01B
:10CB8E003F0EDCEC60F0D30EDCEC60F0000EDCEC63
:10CB9E0060F0400EDCEC60F08D0EDCEC60F0140EFC
:10CBAE00DCEC60F0200EDCEC60F0000EDCEC60F0F3
:10CBBE00A10EDCEC60F0C80EDCEC60F0DA0EDCEC02
:10CBCE0060F0020EDCEC60F0810EDCEC60F08F0E9B
:10CBDE00DCEC60F0D90EDCEC60F0F10EDCEC60F019
:10CBEE00DB0EDCEC60F0400EDCEC60F0A40EDCEC56
:10CBFE0060F0A60EDCEC60F02E0EDCEC60F0AF0EFA
:10CC0E00DCEC60F01200000E096E000E0A6E000ED3
:10CC1E000B6E000E0C6E0550061007100810D8B4DF
:10CC2E001BEF66F01DEF66F053EF66F0010E0D6E12
:10CC3E0027EF66F0D89005360636073608360D2AE9
:10CC4E0008AE2CEF66F02EEF66F021EF66F0D8906E
:10CC5E0009360A360B360C360550015C0650025862
:10CC6E000750035808500458D8A040EF66F042EF22
:10CC7E0066F04BEF66F00550015E0650025A075003
:10CC8E00035A0850045A0980D890083207320632E7
:10CC9E0005320D2E2EEF66F009C001F00AC002F02B
:10CCAE000BC003F00CC004F01200FAEC5FF06DC183
:10CCBE00D9FF6EC1DAFFDF6E01016D4B6E2B6F0770
:10CCCE00D8A070076F517011D8B470EF66F072EF84
:10CCDE0066F077EF66F001EC60F0050EAEEF66F0F1
:10CCEE00738782EF66F02CEC60F0AEEF66F028EC06
:10CCFE0060F0AEEF66F05CC10AF05DC10BF002D8D9
:10CD0E0092EF66F00500FA6E5051FD6E5151FE6EB7
:10CD1E00FF6AFA5012000C6E0D6A0D50000AD8B45C
:10CD2E009BEF66F07EEF66F00C50010AD8B47EEFF2
:10CD3E0066F0030AD8B47AEF66F0010AD8B47AEF37
:10CD4E0066F0070AD8B47EEF66F07EEF66F012004A
:10CD5E00000E0114096E000E02140A6E800E0314EA
:10CD6E000B6E7F0E04140C6E09500A100B100C1073
:10CD7E00D8A4C4EF66F0C6EF66F0CEEF66F0000EF4
:10CD8E00016E000E026E000E036E000E046E000E9B
:10CD9E000514096E000E06140A6E800E07140B6E33
:10CDAE007F0E08140C6E09500A100B100C10D8A42C
:10CDBE00E3EF66F0E5EF66F0EDEF66F0000E056E60
:10CDCE00000E066E000E076E000E086E055001185E
:10CDDE000FE1065002180CE10750031809E1085044
:10CDEE000418D8B4FDEF66F0FFEF66F002EF67F0BF
:10CDFE00D89003EF67F0D8801200000E066E02BEC8
:10CE0E000DEF67F00BEF67F013EF67F0016C021E8A
:10CE1E00D8B0022A010E066E04BE1AEF67F018EFA4
:10CE2E0067F01EEF67F0036C041ED8B0042A03509F
:10CE3E000410D8B425EF67F027EF67F04BEF67F0DB
:10CE4E00010E056E2FEF67F0D89003360436052AD3
:10CE5E0004AE34EF67F036EF67F02BEF67F0035058
:10CE6E00015C04500258D8A03FEF67F041EF67F025
:10CE7E0045EF67F00350015E0450025AD890043219
:10CE8E000332052E36EF67F00650D8B451EF67F037
:10CE9E0053EF67F057EF67F0016C021ED8B0022A0D
:10CEAE0001C001F002C002F012007BEC60F000093C
:10CEBE00D8B464EF67F066EF67F0A1EF67F074EF38
:10CECE0067F014EC60F0BDEF67F018EC60F0BDEFAA
:10CEDE0067F020EC60F0BDEF67F062C10AF063C14D
:10CEEE000BF002D885EF67F00500FA6E010156517E
:10CEFE00FD6E5751FE6EFF6AFA5012000C6E0D6AEF
:10CF0E000D50000AD8B48EEF67F070EF67F00C503A
:10CF1E00010AD8B470EF67F0030AD8B468EF67F06F
:10CF2E00010AD8B46CEF67F0070AD8B470EF67F057
:10CF3E0070EF67F0010173916DC1D9FF6EC1DAFF19
:10CF4E006D4B6E2BDF5010EC60F001016F07D8A017
:10CF5E0070076F517011D8A4B7EF67F0B9EF67F093
:10CF6E00BCEF67F0060EBDEF67F0030E1200000E69
:10CF7E00066E04BEC7EF67F0C5EF67F0CDEF67F042
:10CF8E00036C041ED8B0042A010E066E02BED4EF46
:10CF9E0067F0D2EF67F0DAEF67F0016C021ED8B0DF
:10CFAE00022A010E061A000E086E000E076E0350BE
:10CFBE000410D8B4E5EF67F0E7EF67F00FEF68F015
:10CFCE00010E056EEFEF67F0D89003360436052A92
:10CFDE0004AEF4EF67F0F6EF67F0EBEF67F0D89082
:10CFEE00073608360350015C04500258D8A002EFF1
:10CFFE0068F004EF68F009EF68F00350015E04502A
:10D00E00025A0780D89004320332052EF6EF67F0ED
:10D01E000650D8B415EF68F017EF68F01BEF68F004
:10D02E00076C081ED8B0082A07C001F008C002F02D
:10D03E0012000001D4A126EF68F028EF68F032EF5D
:10D04E0068F013C00AF014C00BF011C00CF012C03F
:10D05E000DF0A2EC62F016BE37EF68F039EF68F013
:10D06E003FEF68F015C01AF016C01BF043EF68F0E2
:10D07E00000E1B6E000E1A6E000E196E000E186E4C
:10D08E0055EF68F0000E026E200E016E11C003F017
:10D09E0012C004F083EC68F0184A192A1A50185C72
:10D0AE001950800A176E1B50800A1758D8A062EFCD
:10D0BE0068F064EF68F049EF68F00001D4B16AEFF0
:10D0CE0068F06CEF68F076EF68F013C00AF014C0E9
:10D0DE000BF011C00CF012C00DF0A2EC62F013C0F8
:10D0EE0001F014C002F0F1EC61F01A500124116E3F
:10D0FE001B500220126E120003500410D8B48AEF97
:10D10E0068F08CEF68F095EF68F003500410D8A427
:10D11E0093EF68F095EF68F09AEF68F00150E7EC46
:10D12E005FF0E7EF68F020EE04F00350D9260450CC
:10D13E00DA22DE50DE10D8B4A7EF68F0A9EF68F05F
:10D14E00C4EF68F020EE04F00350D9260450DA2222
:10D15E0010EE02F00350E1260450E222DE50E65CAF
:10D16E00E650800A096EDE50800A0958D8B0C2EF28
:10D17E0068F0C4EF68F0E7EF68F020EE02F00350BD
:10D18E00D9260450DA22DECF05F0DDCF06F003C03B
:10D19E00D9FF04C0DAFFDECF07F0DDCF08F005506F
:10D1AE000724D96E06500820DA6E01C0DFFF20EE8C
:10D1BE0002F00350D9260450DA22DE2A000EDD22B8
:10D1CE00120001C008F002C009F003C00AF004C04A
:10D1DE000BF00506D8A00606052806E10628D8A4F9
:10D1EE00FBEF68F0FDEF68F00AEF69F0000E026EDB
:10D1FE00000E016E55EF69F0084A092A0A4A0B2AF9
:10D20E000506D8A0060608C0D9FF09C0DAFFDF5010
:10D21E00D8B414EF69F016EF69F043EF69F00AC065
:10D22E00F6FF0BC0F7FFF86A0800F5500009D8B4F6
:10D23E0023EF69F025EF69F043EF69F00550061012
:10D24E00D8B42CEF69F02EEF69F043EF69F008C007
:10D25E00D9FF09C0DAFFDF50076E0AC0F6FF0BC018
:10D26E00F7FFF86A0800F5500718D8B441EF69F0D7
:10D27E0043EF69F003EF69F008C0D9FF09C0DAFF88
:10D28E00DF50076E0AC0F6FF0BC0F7FFF86A080002
:10D29E00F550075C016E026AD8A00206120008EC77
:10D2AE0060F0000E036E800E026E34EC60F0000E25
:10D2BE00036E030E026E34EC60F004EC60F0000EB0
:10D2CE00036E810E026E34EC60F0000E036E010EE2
:10D2DE00026ED6EC61F00250226E000E036E000E4E
:10D2EE00026ED6EC61F022501F6E1E6A02501E10A6
:10D2FE00206E03501F10216E20C001F021C002F0DD
:10D30E00000E046E0A0E036E12EC61F001C007F0FF
:10D31E0002C008F0096A0A6A000E22EC6DF007C01E
:10D32E00B6F008C0B7F009C0B8F00AC0B9F00CECFE
:10D33E0060F0B6C001F0B7C002F0B8C003F0B9C0DB
:10D34E0004F0000E056E000E066E7A0E076E440E89
:10D35E00086EEDEC6FF001C0B6F002C0B7F003C07E
:10D36E00B8F004C0B9F0070E1F6E170E1E6E6A0ECF
:10D37E00E82EFED71E2EFCD71F2EFAD700D0B6C031
:10D38E001AF0B7C01BF0B8C01CF0B9C01DF01200E7
:10D39E00B2C00BF0B3C00CF0B4C00DF0B5C00EF0BF
:10D3AE0001C00BF002C00CF003C00DF004C00EF073
:10D3BE000BC005F00CC006F00DC007F00EC008F053
:10D3CE00180EEFEF69F0D8900832073206320532A8
:10D3DE00E82EEAEF69F00550096E0A6A09500A1044
:10D3EE00D8A4FCEF69F0FEEF69F01EEF6AF0D8905A
:10D3FE000B34056E0C34066E0D34076E0E34086E4B
:10D40E000550061007100810D8A410EF6AF012EF9E
:10D41E006AF018EF6AF0000E026E020E016E4DEF0A
:10D42E006AF0000E026E030E016E4DEF6AF00928CF
:10D43E000A10D8A425EF6AF027EF6AF049EF6AF0D8
:10D44E000BC005F00CC006F00DC007F00EC008F0C2
:10D45E00090ED8900536063607360836E82E30EF18
:10D46E006AF00550061007100810D8B441EF6AF0A4
:10D47E0044EF6AF0010E45EF6AF0000E016E026A8B
:10D48E004DEF6AF0000E026E040E016E120008ECF3
:10D49E0060F0000E036E800E026E34EC60F0000E33
:10D4AE00036E010E026E34EC60F004EC60F0000EC0
:10D4BE00036E810E026E34EC60F0000E036E010EF0
:10D4CE00026ED6EC61F00250366E000E036E000E48
:10D4DE00026ED6EC61F03650336E326A0250321064
:10D4EE00346E03503310356E34C007F035C008F07B
:10D4FE00096A0A6A000E22EC6DF007C015F008C02A
:10D50E0016F009C017F00AC018F0000E196E000EC2
:10D51E001A6EA00E1B6E3F0E1C6EBAEC71F015C08B
:10D52E00BAF016C0BBF017C0BCF018C0BDF00CECC2
:10D53E0060F0BAC001F0BBC002F0BCC003F0BDC0C9
:10D54E0004F0000E056E000E066E7A0E076E440E87
:10D55E00086EEDEC6FF001C0BAF002C0BBF003C074
:10D56E00BCF004C0BDF0070E336E170E326E6A0E9D
:10D57E00E82EFED7322EFCD7332EFAD700D0BAC003
:10D58E002EF0BBC02FF0BCC030F0BDC031F0120089
:10D59E0008EC60F0000E036E800E026E34EC60F04C
:10D5AE00000E036E020E026E34EC60F004EC60F0BE
:10D5BE00000E036E810E026E34EC60F0000E036EF0
:10D5CE00010E026ED6EC61F00250366E000E036E46
:10D5DE00000E026ED6EC61F03650336E326A025097
:10D5EE003210346E03503310356E34C007F035C030
:10D5FE0008F0096A0A6A000E22EC6DF007C015F0F9
:10D60E0008C016F009C017F00AC018F0000E196E07
:10D61E00000E1A6EA00E1B6E3F0E1C6EBAEC71F051
:10D62E0015C0BEF016C0BFF017C0C0F018C0C1F0D4
:10D63E000CEC60F0BEC001F0BFC002F0C0C003F041
:10D64E00C1C004F0000E056E000E066E7A0E076E57
:10D65E00440E086EEDEC6FF001C0BEF002C0BFF0DC
:10D66E0003C0C0F004C0C1F0070E336E170E326E49
:10D67E006A0EE82EFED7322EFCD7332EFAD700D004
:10D68E00BEC02EF0BFC02FF0C0C030F0C1C031F010
:10D69E001200000E2E14366E000E2F14376E800EF2
:10D6AE003014386E7F0E3114396E365037103810F4
:10D6BE003910D8A465EF6BF067EF6BF06FEF6BF07E
:10D6CE00000E2E6E000E2F6E000E306E000E316E9E
:10D6DE00000E3214366E000E3314376E800E341474
:10D6EE00386E7F0E3514396E3650371038103910AB
:10D6FE00D8A484EF6BF086EF6BF08EEF6BF0000E1C
:10D70E00326E000E336E000E346E000E356E31AE7C
:10D71E0093EF6BF095EF6BF09EEF6BF02E6C2F1E70
:10D72E00D8B02F2A301ED8B0302A800E315635AEE2
:10D73E00A3EF6BF0A5EF6BF0AEEF6BF0326C331E18
:10D74E00D8B0332A341ED8B0342A800E3556000E87
:10D75E002E1A000E2F1A000E301A800E311A000EDD
:10D76E00321A000E331A000E341A800E351A325049
:10D77E002E5C33502F583450305835503158D8B065
:10D78E00CBEF6BF0CDEF6BF0D0EF6BF0D890D1EF1D
:10D79E006BF0D8801200033404340A6E0A50D8A4F9
:10D7AE00DBEF6BF0DDEF6BF0E7EF6BF0000E016E71
:10D7BE00000E026E000E036E000E046E54EF6CF03F
:10D7CE0001C005F002C006F003C007F004C008F067
:10D7DE00200EF7EF6BF0D890083207320632053282
:10D7EE00E82EF2EF6BF00550096E038EFF0E011658
:10D7FE00FF0E0216FF0E0316000E0416960E0A5E9C
:10D80E000ABE0EEF6CF00CEF6CF024EF6CF00A50C9
:10D81E00800A970FD8B016EF6CF018EF6CF01AEF75
:10D82E006CF0DDEF6BF0D89004320332023201322D
:10D83E000A3E1AEF6CF03CEF6CF01F0E0A642AEFF2
:10D84E006CF02CEF6CF034EF6CF0DDEF6BF0D890E9
:10D85E0001360236033604360A060A50D8A43AEFC9
:10D86E006CF03CEF6CF02EEF6CF00950D8B442EF38
:10D87E006CF044EF6CF04CEF6CF0041E031E021EB5
:10D88E00016C000E02220322042201C001F002C02C
:10D89E0002F003C003F004C004F01200000E166E76
:10D8AE00000E156E000E0F6E000E0E6E61EF6CF018
:10D8BE00084A092A010E146E08C0F6FF09C0F7FFC8
:10D8CE00F86A0800F550200AD8B470EF6CF072EFC9
:10D8DE006CF090EF6CF0F70E0A6EFF0E0B6E08C038
:10D8EE00F6FF09C0F7FFF86A0800F5500C6E0D6AD6
:10D8FE000A500C260B500D220D5009E1050E0C5C42
:10D90E00D8A08CEF6CF08EEF6CF090EF6CF0000EF8
:10D91E00146E14C010F0116A10501110D8A49AEFA2
:10D92E006CF09CEF6CF05FEF6CF0A6EF6CF0000EFD
:10D93E000F6E010E0E6E084A092ADDEF6CF008C05C
:10D94E00F6FF09C0F7FFF86A0800F5500A6E0B6A79
:10D95E000B50000AD8B4B6EF6CF0DDEF6CF00A5045
:10D96E002B0AD8B4A2EF6CF0060AD8B49EEF6CF076
:10D97E00DDEF6CF015C001F016C002F0000E046E63
:10D98E000A0E036E12EC61F008C0F6FF09C0F7FF35
:10D99E00F86A0800F550015E000E025A300E01249E
:10D9AE00156E000E0220166EA2EF6CF0D00E0A6EEF
:10D9BE00FF0E0B6E08C0F6FF09C0F7FFF86A0800ED
:10D9CE00F5500C6E0D6A0A500C260B500D220D50A0
:10D9DE000AE10A0E0C5CD8A0F7EF6CF0FAEF6CF0CF
:10D9EE00010EFBEF6CF0000E126E136A1250131044
:10D9FE00D8A404EF6DF006EF6DF0C1EF6CF00E5091
:10DA0E000F10D8A40DEF6DF00FEF6DF01DEF6DF050
:10DA1E0015C00AF016C00BF00A1E0B1E0A4A0B2A7E
:10DA2E000AC008F00BC009F021EF6DF015C008F028
:10DA3E0016C009F012000F6E0F50D8B429EF6DF01A
:10DA4E002BEF6DF04DEF6DF00ABE32EF6DF030EF53
:10DA5E006DF04DEF6DF007C00BF008C00CF009C073
:10DA6E000DF00AC00EF00B1E0C1E0D1E0E1E0B2A04
:10DA7E00000E0C220D220E220BC011F00CC012F063
:10DA8E000DC013F00EC014F055EF6DF007C011F07D
:10DA9E0008C012F009C013F00AC014F007500810A5
:10DAAE0009100A10D8A45EEF6DF060EF6DF06AEF0A
:10DABE006DF0000E076E000E086E000E096E000E61
:10DACE000A6EFBEF6DF0960E106E74EF6DF0102A6D
:10DADE00D8901432133212321132000E11140B6E12
:10DAEE00000E12140C6E000E13140D6EFE0E141496
:10DAFE000E6E0B500C100D100E10D8A489EF6DF099
:10DB0E008BEF6DF06EEF6DF099EF6DF0102A010E48
:10DB1E001126000E122213221422D8901432133220
:10DB2E0012321132000E11140B6E000E12140C6E06
:10DB3E00000E13140D6EFF0E14140E6E0B500C10FF
:10DB4E000D100E10D8A4AEEF6DF0B0EF6DF08DEF9E
:10DB5E006DF0B8EF6DF01006D89011361236133600
:10DB6E00143613BEBDEF6DF0BFEF6DF0C7EF6DF065
:10DB7E00020E1060C5EF6DF0C7EF6DF0B2EF6DF0F5
:10DB8E0010B0CCEF6DF0CEEF6DF0CFEF6DF0139EC9
:10DB9E00D890103210C00BF00C6A0D6A0E6A0BC0D2
:10DBAE000EF00D6A0C6A0B6A0B5011120C50121209
:10DBBE000D5013120E5014120F50D8B4E9EF6DF031
:10DBCE00EBEF6DF0F3EF6DF00ABEF2EF6DF0F0EFEC
:10DBDE006DF0F3EF6DF0148E11C007F012C008F067
:10DBEE0013C009F014C00AF0120039EC60F071ECA9
:10DBFE0060F0BBEC65F0A7EC61F0000E9DEC60F000
:10DC0E00FC0E216EFF0E226EF3EC63F0A7EC61F0BA
:10DC1E00010E9DEC60F0F50E216EFF0E226EF3EC00
:10DC2E0063F0A7EC61F0800E0E6E1A0E0F6E060EEC
:10DC3E00106E000E116E66EC63F0CFEC6AF02EC023
:10DC4E00CAF02FC0CBF030C0CCF031C0CDF04EECCE
:10DC5E006AF02EC0C6F02FC0C7F030C0C8F031C079
:10DC6E00C9F056EC69F01AC0C2F01BC0C3F01CC05C
:10DC7E00C4F01DC0C5F0E90E00019E6F000E9F6F2F
:10DC8E00E00EA06FFF0EA16FCAC0A2F0CBC0A3F032
:10DC9E00CCC0A4F0CDC0A5F010EC63F0E30E0001F3
:10DCAE009E6F000E9F6FE00EA06FFF0EA16FC6C09D
:10DCBE00A2F0C7C0A3F0C8C0A4F0C9C0A5F010EC74
:10DCCE0063F0DD0E00019E6F000E9F6FE00EA06FE1
:10DCDE00FF0EA16FC2C0A2F0C3C0A3F0C4C0A4F0D7
:10DCEE00C5C0A5F010EC63F0000E9DEC60F0AF0E19
:10DCFE00216EFF0E226EF3EC63F0070E5F6E170EB1
:10DD0E005E6E6A0EE82EFED75E2EFCD75F2EFAD719
:10DD1E0000D0010E9DEC60F0D70E216EFF0E226E2C
:10DD2E00F3EC63F0E90E216E000E226EF3EC63F05D
:10DD3E00070E5F6E170E5E6E6A0EE82EFED75E2E13
:10DD4E00FCD75F2EFAD700D0020E9DEC60F0CC0E01
:10DD5E00216EFF0E226EF3EC63F0E30E216E000EC9
:10DD6E00226EF3EC63F0070E5F6E170E5E6E6A0E98
:10DD7E00E82EFED75E2EFCD75F2EFAD700D0030E0C
:10DD8E009DEC60F0C10E216EFF0E226EF3EC63F07F
:10DD9E00DD0E216E000E226EF3EC63F0330E5F6E1D
:10DDAE00BB0E5E6EE00EE82EFED75E2EFCD75F2E0B
:10DDBE00FAD718EF6EF000EF00F0AEC02AF0AFC049
:10DDCE002BF0B0C02CF0B1C02DF01AC02AF01BC041
:10DDDE002BF01CC02CF01DC02DF0810E1E6EFF0E00
:10DDEE001F6E2AC020F02BC021F02CC022F02DC0B7
:10DDFE0023F0180E08EF6FF0D89023322232213222
:10DE0E002032E82E03EF6FF020501E24286E000EF5
:10DE1E001F20296E29BE1DEF6FF0295009E1170E44
:10DE2E00285CD8A01DEF6FF01FEF6FF029EF6FF099
:10DE3E001AC01AF01BC01BF01CC01CF01DC01DF038
:10DE4E00ECEF6FF029BE2EEF6FF030EF6FF0A0EF1A
:10DE5E006FF028C01EF0FF0E1F6EFF0E206E7F0E9D
:10DE6E00216E000E226E1E663FEF6FF047EF6FF0D1
:10DE7E0022342232213220321F321E2E3AEF6FF020
:10DE8E001FC024F020C025F021C026F022C027F0AC
:10DE9E0024502A141E6E25502B141F6E26502C143F
:10DEAE00206E27502D14216E1E501F102010211091
:10DEBE00D8A464EF6FF066EF6FF068EF6FF01FEFAE
:10DECE006FF02AC01EF02BC01FF02CC020F02DC00A
:10DEDE0021F0200E78EF6FF0D890213220321F32D1
:10DEEE001E32E82E73EF6FF01E501F1020102110FF
:10DEFE00D8B484EF6FF086EF6FF08EEF6FF0245092
:10DF0E002A2625502B2226502C2227502D22241C27
:10DF1E001E6E251C1F6E261C206E271C216E1E5089
:10DF2E002A161F502B1620502C1621502D16E4EFBA
:10DF3E006FF02AC01EF02BC01FF02CC020F02DC099
:10DF4E0021F0200EB0EF6FF0D890213220321F3228
:10DF5E001E32E82EABEF6FF01E501F102010211056
:10DF6E00D8A4BCEF6FF0BEEF6FF0C8EF6FF0000EED
:10DF7E002A6E000E2B6E000E2C6E000E2D6EE4EF30
:10DF8E006FF0D8902A341E6E2B341F6E2C34206EF8
:10DF9E002D34216E1E501F1020102110D8B4DAEF30
:10DFAE006FF0DCEF6FF0E4EF6FF0000E2A6E000EF4
:10DFBE002B6E800E2C6EBF0E2D6E2AC01AF02BC04B
:10DFCE001BF02CC01CF02DC01DF012000450800B55
:10DFDE00116E04500424186E03AEF8EF6FF0FAEFD2
:10DFEE006FF0FBEF6FF018801850D8B401EF70F09F
:10DFFE0003EF70F018EF70F01828D8A409EF70F046
:10E00E000BEF70F013EF70F0000E016E000E026E4B
:10E01E00000E036E000E046E038E000E046E20EFD3
:10E02E0070F0000E016E000E026E000E036E000EFA
:10E03E00046E0850800B111A08500824196E07AE92
:10E04E002BEF70F02DEF70F02EEF70F0198019504D
:10E05E00D8B434EF70F036EF70F04BEF70F0192843
:10E06E00D8A43CEF70F03EEF70F046EF70F0000E6B
:10E07E00056E000E066E000E076E000E086E078E01
:10E08E00000E086E53EF70F0000E056E000E066E59
:10E09E00000E076E000E086E0550061007100810D1
:10E0AE00D8A45CEF70F05EEF70F076EF70F0000EBB
:10E0BE00016E000E026E000E036E000E046E800ED8
:10E0CE0003127F0E04121150041201C001F002C09F
:10E0DE0002F003C003F004C004F0B9EF71F0185061
:10E0EE00D8A47CEF70F07EEF70F088EF70F0000E29
:10E0FE00016E000E026E000E036E000E046EB9EF7E
:10E10E0071F0195018C009F00A6A095E000E0A5A19
:10E11E007F0E0924126E000E0A20136E01C00DF040
:10E12E0002C00EF003C00FF004C010F0000E016E1E
:10E13E00000E026E000E036E000E046E000E146EC4
:10E14E00000E156E000E166E000E176E000E196E76
:10E15E00E9EF70F01950D8B4B7EF70F0B9EF70F076
:10E16E00D0EF70F0D8900D360E360F361036D890A0
:10E17E00013602360336043617AEC8EF70F0CAEF1A
:10E18E0070F0CBEF70F00180D8901436153616363D
:10E19E00173605500D5C06500E5807500F58085094
:10E1AE001058D8A0DDEF70F0DFEF70F0E8EF70F0F0
:10E1BE00178C05500D5E06500E5A07500F5A085018
:10E1CE00105A192A190E1964EFEF70F0F1EF70F072
:10E1DE00B1EF70F00D500E100F101010D8B4FAEF02
:10E1EE0070F0FCEF70F014EF71F0148014EF71F01A
:10E1FE00D890013602360336043617AE09EF71F0A9
:10E20E000BEF71F00CEF71F00180D89014361536CB
:10E21E00163617361206D8A0130603AE19EF71F094
:10E22E001BEF71F0FFEF70F0000E196E17AE22EFBC
:10E23E0071F024EF71F048EF71F0FF0E1414096EB7
:10E24E00FF0E15140A6EFF0E16140B6E7F0E1714AA
:10E25E000C6E09500A100B100C10D8B439EF71F077
:10E26E003BEF71F03FEF71F0010E196E48EF71F058
:10E27E0001A044EF71F046EF71F048EF71F03BEF03
:10E28E0071F01950D8B44EEF71F050EF71F074EF89
:10E29E0071F0010E0126000E02220322042204A0B8
:10E2AE005BEF71F05DEF71F074EF71F001C009F08A
:10E2BE0002C00AF003C00BF004C00CF00C340C3298
:10E2CE000B320A32093209C001F00AC002F00BC04B
:10E2DE0003F00CC004F0124A132A13BE7FEF71F044
:10E2EE00135008E11228D8A07FEF71F081EF71F082
:10E2FE008CEF71F0000E136E1268000E016E000EA0
:10E30E00026E000E036E000E046E13BE99EF71F0D6
:10E31E00135006E11204D8B097EF71F099EF71F037
:10E32E00A7EF71F0000E136E000E126E000E016E4E
:10E33E00000E026E000E036E000E046E000E116EC5
:10E34E0012C018F018A0AEEF71F0B0EF71F0B3EF8D
:10E35E0071F0038EB4EF71F0039ED8901830046EF6
:10E36E006AEF70F012001850800B216E18501824AE
:10E37E00276E17AEC5EF71F0C7EF71F0C8EF71F0F1
:10E38E0027802750D8B4CEEF71F0D0EF71F0E3EFC5
:10E39E0071F02728D8A4D6EF71F0D8EF71F0E0EF26
:10E3AE0071F0000E156E000E166E000E176E000E3A
:10E3BE00186E178EEBEF71F0000E156E000E166EC6
:10E3CE00000E176E000E186E1C50800B211A1C507A
:10E3DE001C24266E1BAEF6EF71F0F8EF71F0F9EF1C
:10E3EE0071F026802650D8B4FFEF71F001EF72F075
:10E3FE0014EF72F02628D8A407EF72F009EF72F02E
:10E40E0011EF72F0000E196E000E1A6E000E1B6EDA
:10E41E00000E1C6E1B8E1CEF72F0000E196E000E9D
:10E42E001A6E000E1B6E000E1C6E2650D8B422EF14
:10E43E0072F024EF72F02CEF72F02750D8A42AEF6E
:10E44E0072F02CEF72F036EF72F0000E156E000EB9
:10E45E00166E000E176E000E186ECEEF73F01B5078
:10E46E001502F3CF2CF0F4CF2DF02C50226E236A30
:10E47E00246A256A2D50286E296A2A6A2B6A1A5038
:10E48E001602F3CF2CF0F4CF2DF02C502226000ED6
:10E49E002322242225222D502826000E29222A222C
:10E4AE002B2219501702F3CF2CF0F4CF2DF02C5055
:10E4BE002226000E2322242225222D502826000E4D
:10E4CE0029222A222B2224C025F023C024F022C088
:10E4DE0023F0226A19501602F3CF2CF0F4CF2DF050
:10E4EE002C5022262D502322000E2422000E2522EF
:10E4FE001A501502F3CF2CF0F4CF2DF02C5022260B
:10E50E002D502322000E2422000E252224C025F099
:10E51E0023C024F022C023F0226A19501502F3CF33
:10E52E002CF0F4CF2DF02C5022262D502322000E4D
:10E53E002422000E25221B501602F3CF2CF0F4CF0E
:10E54E002DF02C5028262D502922000E2A22000EA6
:10E55E002B221A501702F3CF2CF0F4CF2DF02C50A3
:10E56E0028262D502922000E2A22000E2B221B5067
:10E57E001702F3CF2CF0F4CF2DF02C501D6E2D5032
:10E58E001E6E1F6A206A1FC020F01EC01FF01DC025
:10E59E001EF01D6A1D5028261E5029221F502A22A9
:10E5AE0020502B2222C01DF023C01EF024C01FF0CD
:10E5BE0025C020F0190EE9EF72F0D89020321F32EC
:10E5CE001E321D32E82EE4EF72F01D5028261E502A
:10E5DE0029221F502A2220502B2224C025F023C08E
:10E5EE0024F022C023F0226A265027C01DF01E6A96
:10E5FE001D26000E1E22820E1D242C6EFF0E1E20C6
:10E60E002D6E1FEF73F0D890283629362A362B360A
:10E61E0025AE14EF73F016EF73F017EF73F028803A
:10E62E00D89022362336243625362C06D8A02D0631
:10E63E002AAE24EF73F026EF73F00AEF73F0000E9C
:10E64E00266E25AE2DEF73F02FEF73F053EF73F0B0
:10E65E00FF0E22141D6EFF0E23141E6EFF0E2414C9
:10E66E001F6E7F0E2514206E1D501E101F102010C1
:10E67E00D8B444EF73F046EF73F04AEF73F0010E27
:10E68E00266E53EF73F028A04FEF73F051EF73F037
:10E69E0053EF73F046EF73F02650D8B459EF73F082
:10E6AE005BEF73F07FEF73F0010E2826000E292228
:10E6BE002A222B222BA066EF73F068EF73F07FEF08
:10E6CE0073F028C01DF029C01EF02AC01FF02BC009
:10E6DE0020F0203420321F321E321D321DC028F091
:10E6EE001EC029F01FC02AF020C02BF02C4A2D2A64
:10E6FE002DBE8AEF73F02D5008E12C28D8A08AEF9A
:10E70E0073F08CEF73F096EF73F0000E286E000E20
:10E71E00296E800E2A6E7F0E2B6EC4EF73F02DBE07
:10E72E00A3EF73F02D5006E12C04D8B0A1EF73F0D7
:10E73E00A3EF73F0AFEF73F0000E286E000E296E8C
:10E74E00000E2A6E000E2B6E000E216EC4EF73F0BB
:10E75E002CC027F0FF0E2816FF0E29167F0E2A1644
:10E76E00000E2B1627A0BEEF73F0C0EF73F0C1EFB3
:10E77E0073F02A8ED89027302B6E21502B1228C082
:10E78E0015F029C016F02AC017F02BC018F0120091
:10E79E0048C0D9FF49C0DAFFDECFF6FFDDCFF7FF65
:10E7AE00F86A0800F550250AD8A4E0EF73F0E2EFFE
:10E7BE0073F0EEEF75F048C0D9FF49C0DAFFDE2ADC
:10E7CE00000EDD22000E0001D16F000ED06FD0C002
:10E7DE00D4F0D1C0D5F0D269D36948C0D9FF49C0B1
:10E7EE00DAFFDECFF6FFDDCFF7FFF86A0800F5504F
:10E7FE002E0AD8A405EF74F007EF74F086EF74F0CC
:10E80E00000ED36F000ED26F48C0D9FF49C0DAFF99
:10E81E00DE2A000EDD2248C0D9FF49C0DAFFDECF66
:10E82E00F6FFDDCFF7FFF86A0800F5502A0AD8A4E4
:10E83E0023EF74F025EF74F042EF74F048C0D9FF67
:10E84E0049C0DAFFDE2A000EDD224AC0D9FF4BC0D6
:10E85E00DAFFDFCF4CF0020EDE26DFCF4DF0000EDA
:10E86E00DD224CC0D9FF4DC0DAFFDECFD2F0DDCFB6
:10E87E00D3F086EF74F048C0D9FF49C0DAFFDECF7F
:10E88E0008F0DDCF09F055EC6CF008C0D2F009C0ED
:10E89E00D3F059EF74F048C0D9FF49C0DAFFDE2A31
:10E8AE00000EDD22D00E4C6EFF0E4D6E48C0D9FF0D
:10E8BE0049C0DAFFDECFF6FFDDCFF7FFF86A0800BA
:10E8CE00F5504E6E4F6A4C504E264D504F224F50C3
:10E8DE000AE10A0E4E5CD8A077EF74F07AEF74F06E
:10E8EE00010E7BEF74F0000E506E516A50505110B5
:10E8FE00D8A484EF74F086EF74F052EF74F048C031
:10E90E00D9FF49C0DAFFDECFF6FFDDCFF7FFF86A99
:10E91E000800F550076E086AC3EC63F00750586E96
:10E92E005850D8B49DEF74F09FEF74F0D9EF74F097
:10E93E0048C0D9FF49C0DAFFDECF4CF0DDCF4DF035
:10E94E00010E4C26000E4D224CC0F6FF4DC0F7FFB7
:10E95E00F86A0800F550076E086AC3EC63F00750BA
:10E96E00596E5950D8B4BEEF74F0C0EF74F0D9EFB1
:10E97E0074F048C0D9FF49C0DAFFDECF4CF0DDCFCE
:10E98E004DF0020E4C26000E4D224CC0F6FF4DC02F
:10E99E00F7FFF86A0800F550076E086AC3EC63F0DB
:10E9AE0007505A6E660E5818D8A4E0EF74F0E2EFD6
:10E9BE0074F023EF75F048C0D9FF49C0DAFFDECFFF
:10E9CE00F6FFDDCFF7FFF86A0800F5CF5BF048C021
:10E9DE00D9FF49C0DAFFDE2A000EDD224AC0D9FF78
:10E9EE004BC0DAFFDFCF4CF0040EDE26DFCF4DF04A
:10E9FE00000EDD224CC0D9FF4DC0DAFFDECF54F041
:10EA0E00DECF55F0DECF56F0DECF57F046C03AF0EF
:10EA1E0047C03BF054C03CF055C03DF056C03EF0F0
:10EA2E0057C03FF05BC040F06BEC78F03AC046F058
:10EA3E003BC047F00AEF76F0580E016E000E026EE4
:10EA4E00F90E036EFF0E046E000E066E020E056EBC
:10EA5E00E8EC68F001500210D8A438EF75F03AEFE8
:10EA6E0075F0B7EF75F048C0D9FF49C0DAFFDECFB9
:10EA7E004CF0DDCF4DF0010E4C26000E4D224CC059
:10EA8E00F6FF4DC0F7FFF86A0800F5CF5BF0BF0E3A
:10EA9E004C6EFF0E4D6E48C0D9FF49C0DAFFDECF77
:10EAAE00F6FFDDCFF7FFF86A0800F5504E6E4F6A9D
:10EABE004C504E264D504F224F500AE11A0E4E5CCE
:10EACE00D8A06CEF75F06FEF75F0010E70EF75F06A
:10EADE00000E526E536A52505310D8B479EF75F03F
:10EAEE007BEF75F095EF75F04AC0D9FF4BC0DAFF9A
:10EAFE00DFCF4CF0040EDE26DFCF4DF0000EDD2210
:10EB0E004CC0D9FF4DC0DAFFDECF54F0DECF55F04A
:10EB1E00DECF56F0DECF57F0ADEF75F04AC0D9FF1D
:10EB2E004BC0DAFFDFCF4CF0040EDE26DFCF4DF008
:10EB3E00000EDD224CC0D9FF4DC0DAFFDECF54F0FF
:10EB4E00DECF55F0DECF56F0DECF57F0020E48C0C6
:10EB5E00D9FF49C0DAFFDE26000EDD220DEF75F07B
:10EB6E0048C0D9FF49C0DAFFDECFF6FFDDCFF7FF91
:10EB7E00F86A0800F550250AD8A4C8EF75F0CAEF58
:10EB8E0075F0E1EF75F048C0D9FF49C0DAFFDE2A13
:10EB9E00000EDD22000E026E250E016E46C003F041
:10EBAE0047C004F083EC68F0000E476E010E466E0F
:10EBBE000AEF76F048C0D9FF49C0DAFFDE2A000E10
:10EBCE00DD22000E476E000E466E0AEF76F048C04C
:10EBDE00D9FF49C0DAFFDECFF6FFDDCFF7FFF86AC7
:10EBEE000800F550016E026A46C003F047C004F0FB
:10EBFE0083EC68F048C0D9FF49C0DAFFDE2A000E68
:10EC0E00DD22DBEF75F012000450800B0D6E045008
:10EC1E0004240F6E03AE16EF76F018EF76F019EFB0
:10EC2E0076F00F800F50D8B41FEF76F021EF76F00C
:10EC3E0036EF76F00F28D8A427EF76F029EF76F08E
:10EC4E0031EF76F0000E016E000E026E000E036EB6
:10EC5E00000E046E038E000E046E3EEF76F0000E74
:10EC6E00016E000E026E000E036E000E046E085052
:10EC7E00800B0E6E0D500E18D8B448EF76F04AEF9A
:10EC8E0076F04BEF76F00D8C085008240E6E07AE22
:10EC9E0053EF76F055EF76F056EF76F00E800E507D
:10ECAE00D8B45CEF76F05EEF76F073EF76F00E2868
:10ECBE00D8A464EF76F066EF76F06EEF76F0000E85
:10ECCE00056E000E066E000E076E000E086E078EA5
:10ECDE00000E086E7BEF76F0000E056E000E066ECF
:10ECEE00000E076E000E086E0F500E5CD8B082EF4D
:10ECFE0076F084EF76F0ABEF76F00DAC89EF76F030
:10ED0E008BEF76F08DEF76F0800E0D1A0FC010F0AF
:10ED1E000EC00FF010C00EF001C010F005C001F0D3
:10ED2E0010C005F002C010F006C002F010C006F0D0
:10ED3E0003C010F007C003F010C007F004C010F0BD
:10ED4E0008C004F010C008F0000E106E0F500EC078
:10ED5E0009F00A6A095E000E0A5A0ABEC0EF76F082
:10ED6E000A5009E11A0E095CD8A0C0EF76F0C2EF86
:10ED7E0076F0F9EF76F00150021003100410D8A4CB
:10ED8E00CBEF76F0CEEF76F0010ECFEF76F0000EF1
:10ED9E00106E000E016E000E026E000E036E000E5F
:10EDAE00046E0EC00FF002EF77F010A0E1EF76F0D8
:10EDBE00E3EF76F0E9EF76F0D89010300109106E9F
:10EDCE00EBEF76F0D890103201A0F0EF76F0F2EF84
:10EDDE0076F0F3EF76F0108E043404320332023202
:10EDEE0001320F2A0E500F5CD8A000EF77F002EF21
:10EDFE0077F0DCEF76F00DBC07EF77F009EF77F0E8
:10EE0E0049EF77F00F50D8A40FEF77F011EF77F0AE
:10EE1E001BEF77F0000E016E000E026E000E036EF9
:10EE2E00000E046E6AEF78F005500126065002229D
:10EE3E00075003220850042204A028EF77F02AEF8F
:10EE4E0077F0D6EF77F010A02FEF77F031EF77F065
:10EE5E0037EF77F0D89010300109106E39EF77F058
:10EE6E00D890103201A03EEF77F040EF77F041EFEF
:10EE7E0077F0108E043404320332023201320F2A3C
:10EE8E00D6EF77F00550015C065002580750035834
:10EE9E000450800A096E0850800A0958D8B05AEFFB
:10EEAE0077F05CEF77F087EF77F00150055C096E35
:10EEBE00025006580A6E035007580B6E045008583D
:10EECE000C6EFF0E0924016EFF0E0A20026EFF0E5D
:10EEDE000B20036EFF0E0C20046E800E0D1A106CAC
:10EEEE001050D8A47DEF77F07FEF77F08FEF77F0AB
:10EEFE00010E0126000E0222032204228FEF77F06C
:10EF0E000550015E0650025A0750035A0850045A23
:10EF1E000150021003100410D8A498EF77F09AEF66
:10EF2E0077F0CFEF77F01050D8A4A0EF77F0A2EFE4
:10EF3E0077F0CFEF77F0000E016E000E026E000E2E
:10EF4E00036E000E046E6AEF78F0D890013602362A
:10EF5E000336043610AEB6EF77F0B8EF77F0B9EFB0
:10EF6E0077F0018010A0BEEF77F0C0EF77F0C4EF1E
:10EF7E0077F0D8801036C6EF77F0D89010360F5055
:10EF8E00D8B4CCEF77F0CEEF77F0CFEF77F00F0667
:10EF9E0003AED4EF77F0D6EF77F0ACEF77F0000E4C
:10EFAE000E6E10AEDDEF77F0DFEF77F0F7EF77F064
:10EFBE0010C009F07F0E0916D8B4E8EF77F0EAEF2B
:10EFCE0077F0EEEF77F0010E0E6EF7EF77F001A00F
:10EFDE00F3EF77F0F5EF77F0F7EF77F0EAEF77F002
:10EFEE000E50D8B4FDEF77F0FFEF77F02AEF78F000
:10EFFE00010E0126000E02220322042204A00AEFB3
:10F00E0078F00CEF78F02AEF78F001C009F002C02A
:10F01E000AF003C00BF004C00CF00C340C320B32AF
:10F02E000A32093209C001F00AC002F00BC003F027
:10F03E000CC004F00F28D8B427EF78F029EF78F041
:10F04E002AEF78F00F2A0F28D8B430EF78F032EF8D
:10F05E0078F03AEF78F00F50D8A438EF78F03AEF16
:10F06E0078F04CEF78F0000E016E000E026E000E7E
:10F07E00036E000E046E0F50D8A448EF78F04AEFDE
:10F08E0078F04CEF78F0000E0D6E0FA051EF78F087
:10F09E0053EF78F056EF78F0038E57EF78F0039E2B
:10F0AE00D8900F30046E0DAE5FEF78F061EF78F010
:10F0BE0062EF78F0048E01C001F002C002F003C0CE
:10F0CE0003F004C004F01200000E00017B6F000E6E
:10F0DE007A6F3CC08CF03DC08DF03EC08EF03FC0CC
:10F0EE008FF08FBF7FEF78F07DEF78F095EF78F0AF
:10F0FE00000E7B6F010E7A6F8CC001F08DC002F096
:10F10E008EC003F08FC004F028EC62F001C08CF0CA
:10F11E0002C08DF003C08EF004C08FF0000E00010F
:10F12E00936F000E926FD0C07EF0D1C07FF07A51F7
:10F13E007B11D8A4A5EF78F0A7EF78F0AEEF78F0BA
:10F14E00D4A5ACEF78F0AEEF78F0C8EF78F07A5146
:10F15E007B11D8A4B5EF78F0B7EF78F0BDEF78F06B
:10F16E00000E616F2B0E606FC1EF78F0000E616FB5
:10F17E002D0E606F60C074F1924B932B7E07D8A05A
:10F18E007F078CC001F08DC002F08EC003F08FC0DF
:10F19E0004F0CFEC69F001040210D8A4D9EF78F096
:10F1AE00DBEF78F032EF79F0BF0E416EFF0E426E5C
:10F1BE004050436E446A41504326425044224450CC
:10F1CE000AE11A0E435CD8A0EFEF78F0F2EF78F078
:10F1DE00010EF3EF78F0000E0001626F636B625167
:10F1EE006311D8B4FDEF78F0FFEF78F00DEF79F002
:10F1FE00740E9225016E010E9321026EE50E036EC2
:10F20E00FF0E046E94EC63F019EF79F0740E9225F4
:10F21E00016E010E9321026EED0E036EFF0E046E53
:10F22E0094EC63F00001FD0E7E27FF0E7F233AC0A3
:10F23E0011F03BC012F0740E136E010E146E7EC0F0
:10F24E0015F07FC016F020EC68F011C03AF012C035
:10F25E003BF096EF7EF08CC001F08DC002F08EC0B8
:10F26E0003F08FC004F0CFEC69F001500210D8A467
:10F27E0043EF79F045EF79F085EF79F0BF0E416EEF
:10F28E00FF0E426E4050436E446A41504326425038
:10F29E00442244500AE11A0E435CD8A059EF79F08B
:10F2AE005CEF79F0010E5DEF79F0000E0001646FF6
:10F2BE00656B64516511D8B467EF79F069EF79F039
:10F2CE0077EF79F0740E9225016E010E9321026E86
:10F2DE00E90E036EFF0E046E94EC63F019EF79F0F5
:10F2EE00740E9225016E010E9321026EF10E036EC5
:10F2FE00FF0E046E94EC63F019EF79F0000E00012E
:10F30E00946F000E956F800E966F3F0E976F000EE6
:10F31E00916F000E906F8CC001F08DC002F08EC008
:10F32E0003F08FC004F0000E056E000E066E000E88
:10F33E00076E000E086EAFEC66F0D8B0A9EF79F04C
:10F34E00ABEF79F02EEF7AF0CAEF79F094C015F0AA
:10F35E0095C016F096C017F097C018F0000E196EF3
:10F36E00000E1A6E200E1B6E410E1C6EBAEC71F062
:10F37E0015C094F016C095F017C096F018C097F00F
:10F38E000001904B912B8CC02EF08DC02FF08EC0B3
:10F39E0030F08FC031F0000E196E000E1A6E200E76
:10F3AE001B6E410E1C6E94C015F095C016F096C0E3
:10F3BE0017F097C018F0BAEC71F015C032F016C005
:10F3CE0033F017C034F018C035F050EC6BF0D8B0F5
:10F3DE00F3EF79F0F5EF79F0ADEF79F015EF7AF014
:10F3EE0094C001F095C002F096C003F097C004F0EF
:10F3FE00000E056E000E066E200E076E410E086E94
:10F40E00EDEC6FF001C094F002C095F003C096F0E1
:10F41E0004C097F000019007D8A091078CC02EF081
:10F42E008DC02FF08EC030F08FC031F094C032F00E
:10F43E0095C033F096C034F097C035F050EC6BF0B9
:10F44E00D8A02CEF7AF02EEF7AF0F7EF79F040C0DB
:10F45E0007F0086AC3EC63F007500001816F81C0AA
:10F46E0080F0670E8119D8A43FEF7AF041EF7AF061
:10F47E0067EF7AF0D251D311D8A448EF7AF04AEF61
:10F48E007AF04EEF7AF0000ED36F010ED26FD3BF2B
:10F49E005BEF7AF0D35106E1D205D8B059EF7AF08E
:10F4AE005BEF7AF061EF7AF0000E7D6F060E7C6FE7
:10F4BE0070EF7AF0D2C07CF0D3C07DF070EF7AF0AE
:10F4CE00D3BF6CEF7AF06EEF7AF05BEF7AF061EF0C
:10F4DE007AF0670E8119D8A477EF7AF079EF7AF087
:10F4EE00A8EF7AF091AF87EF7AF0FC0E905DFF0EE9
:10F4FE009159D8A085EF7AF087EF7AF0A6EF7AF0DF
:10F50E00FF0E416EFF0E426E7CC043F07DC044F094
:10F51E0041504326425044229051435C4450800A4D
:10F52E00456E9151800A4558D8A0A0EF7AF0A2EF0F
:10F53E007AF0A6EF7AF0660E806FA8EF7AF0650E7D
:10F54E00806F7CC072F07DC073F0670E8119D8A4F5
:10F55E00B3EF7AF0B5EF7AF0C5EF7AF0660E801958
:10F56E00D8A4BCEF7AF0BEEF7AF0C7EF7AF091BF75
:10F57E00C5EF7AF0C3EF7AF0C7EF7AF0724B732BC8
:10F58E00660E8019D8A4CEEF7AF0D0EF7AF0F0EFB5
:10F59E007AF091BFD7EF7AF0D5EF7AF0E3EF7AF009
:10F5AE00000E946F000E956F800E966F3F0E976F44
:10F5BE00000E916F000E906F670E8119D8B4EAEFAE
:10F5CE007AF0ECEF7AF0F0EF7AF0905172279151D9
:10F5DE007323000E8B6F000E8A6F8CC082F08DC06D
:10F5EE0083F08EC084F08FC085F094C074F095C007
:10F5FE0075F096C076F097C077F081EF7BF082C001
:10F60E0001F083C002F084C003F085C004F094C002
:10F61E0005F095C006F096C007F097C008F0EDEC27
:10F62E006FF001C01AF002C01BF003C01CF004C042
:10F63E001DF0E4EC6EF01AC086F01BC087F01CC003
:10F64E0088F01DC089F086C001F087C002F088C026
:10F65E0003F089C004F0D2EC6BF001C078F002C068
:10F66E0079F082C02EF083C02FF084C030F085C0B8
:10F67E0031F094C019F095C01AF096C01BF097C0E7
:10F68E001CF086C015F087C016F088C017F089C030
:10F69E0018F0BAEC71F015C032F016C033F017C086
:10F6AE0034F018C035F0C4EC62F02EC082F02FC0DA
:10F6BE0083F030C084F031C085F094C001F095C065
:10F6CE0002F096C003F097C004F0000E056E000E17
:10F6DE00066E200E076E410E086EEDEC6FF001C047
:10F6EE0094F002C095F003C096F004C097F00001AC
:10F6FE008A4B8B2B72518A5D8B51800A416E7351EE
:10F70E00800A4158D8A08EEF7BF090EF7BF006EF89
:10F71E007BF094C015F095C016F096C017F097C008
:10F72E0018F0000E196E000E1A6EA00E1B6E400E13
:10F73E001C6EBAEC71F015C086F016C087F017C0BB
:10F74E0088F018C089F082C02EF083C02FF084C0DC
:10F75E0030F085C031F086C032F087C033F088C0FB
:10F76E0034F089C035F050EC6BF0D8B0C1EF7BF0BF
:10F77E00C3EF7BF0CEEF7BF0000E0001866F000E24
:10F78E00876F000E886F000E896FF7EF7BF082C0D7
:10F79E0001F083C002F084C003F085C004F086C07F
:10F7AE0005F087C006F088C007F089C008F0AFECFE
:10F7BE0066F0D8A0E5EF7BF0E7EF7BF0F7EF7BF09C
:10F7CE00000178B1EDEF7BF0EFEF7BF0F7EF7BF020
:10F7DE00000E866F000E876F000E886F000E896F09
:10F7EE008CC001F08DC002F08EC003F08FC004F00B
:10F7FE0086C005F087C006F088C007F089C008F003
:10F80E000BEC76F001C082F002C083F003C084F0EE
:10F81E0004C085F082C02EF083C02FF084C030F07B
:10F82E0085C031F0000E196E000E1A6E200E1B6E82
:10F83E00410E1C6E74C015F075C016F076C017F030
:10F84E0077C018F0BAEC71F015C032F016C033F074
:10F85E0017C034F018C035F050EC6BF0D8A03AEF6A
:10F86E007CF03CEF7CF065EF7CF00001904B912B2F
:10F87E0074C015F075C016F076C017F077C018F08A
:10F88E00000E196E000E1A6E200E1B6E410E1C6EAF
:10F89E00BAEC71F015C074F016C075F017C076F0A2
:10F8AE0018C077F0660E00018019D8A461EF7CF0C5
:10F8BE0063EF7CF065EF7CF0724B732B74C094F0A9
:10F8CE0075C095F076C096F077C097F0650E000182
:10F8DE008019D8B475EF7CF077EF7CF07DEF7CF07B
:10F8EE0090C070F091C071F081EF7CF0000E716FDE
:10F8FE00000E706F000E6F6F000E6E6F000E6D6F4C
:10F90E00000E6C6F000E8B6F000E8A6F7CEF7DF019
:10F91E0082C001F083C002F084C003F085C004F001
:10F92E0094C005F095C006F096C007F097C008F099
:10F93E00EDEC6FF001C01AF002C01BF003C01CF01A
:10F94E0004C01DF0E4EC6EF01AC086F01BC087F008
:10F95E001CC088F01DC089F086C001F087C002F07F
:10F96E0088C003F089C004F0D2EC6BF001C078F0CF
:10F97E0002C079F00001D4B9C7EF7CF0C9EF7CF07A
:10F98E00E6EF7CF078517911D8A4D0EF7CF0D2EF6D
:10F99E007CF0E6EF7CF0670E8119D8A4D9EF7CF0ED
:10F9AE00DBEF7CF0E6EF7CF071BFE2EF7CF0E0EF96
:10F9BE007CF0E6EF7CF06C4B6D2B30EF7DF06E51F2
:10F9CE006F11D8A4EDEF7CF0EFEF7CF019EF7DF026
:10F9DE0071BFF6EF7CF0F4EF7CF019EF7DF0740E52
:10F9EE009225D96E010E9321DA6E2E0EDF6E924B9A
:10F9FE00932B7E07D8A07F07000E6F6F010E6E6FE0
:10FA0E0019EF7DF0740E9225D96E010E9321DA6EE8
:10FA1E00300EDF6E924B932B7E07D8A07F076C07BC
:10FA2E00D8A06D076C516D11D8A420EF7DF022EF98
:10FA3E007DF009EF7DF0740E9225D96E010E9321A3
:10FA4E00DA6E7851300FDF6E924B932B7E07D8A073
:10FA5E007F0782C02EF083C02FF084C030F085C0A7
:10FA6E0031F094C019F095C01AF096C01BF097C0F3
:10FA7E001CF086C015F087C016F088C017F089C03C
:10FA8E0018F0BAEC71F015C032F016C033F017C092
:10FA9E0034F018C035F0C4EC62F02EC082F02FC0E6
:10FAAE0083F030C084F031C085F094C001F095C071
:10FABE0002F096C003F097C004F0000E056E000E23
:10FACE00066E200E076E410E086EEDEC6FF001C053
:10FADE0094F002C095F003C096F004C097F00001B8
:10FAEE007007D8A071078A4B8B2B72518A5D8B5190
:10FAFE00800A416E7351800A4158D8B089EF7DF06B
:10FB0E008BEF7DF099EF7DF093BF97EF7DF09351E2
:10FB1E0009E14B0E925DD8A097EF7DF099EF7DF045
:10FB2E008FEF7CF06E516F11D8A4A0EF7DF0A2EF95
:10FB3E007DF0B3EF7DF0D4A9A7EF7DF0A9EF7DF0B6
:10FB4E00B3EF7DF0740E9225D96E010E9321DA6E0D
:10FB5E002E0EDF6E924B932B740E9225D96E010EE4
:10FB6E009321DA6E000EDF6E650E8019D8A4C2EFF7
:10FB7E007DF0C4EF7DF01EEF79F0000E8B6F4F0E0F
:10FB8E008A6F740E8A25D96E010E8B21DA6E000EE5
:10FB9E00DF6E000E7B6F000E7A6F91BFDBEF7DF094
:10FBAE00D9EF7DF0E3EF7DF0000E7B6F010E7A6FE3
:10FBBE00906D911FD8B0912B000E7D6F020E7C6F51
:10FBCE0014EF7EF08A07D8A08B07740E8A25D96EA3
:10FBDE00010E8B21DA6E90C001F091C002F0000E82
:10FBEE00046E0A0E036E04EC67F00150300FDF6EE8
:10FBFE0090C001F091C002F0000E046E0A0E036E6A
:10FC0E00BEEC67F001C090F002C091F000017C07DD
:10FC1E00D8A07D077E07D8A07F0790519111D8A458
:10FC2E001BEF7EF01DEF7EF0E9EF7DF07DBF2AEF3A
:10FC3E007EF07D5106E17C05D8B028EF7EF02AEFEC
:10FC4E007EF0E9EF7DF08A07D8A08B077A517B1101
:10FC5E00D8A434EF7EF036EF7EF03CEF7EF0000E4F
:10FC6E00676F2B0E666F40EF7EF0000E676F2D0EE6
:10FC7E00666F740E8A25D96E010E8B21DA6E66C000
:10FC8E00DFFF7E07D8A07F078A07D8A08B07BF0E9D
:10FC9E00416EFF0E426E4050436E446A4150432601
:10FCAE004250442244500AE11A0E435CD8A062EF3F
:10FCBE007EF065EF7EF0010E66EF7EF0000E6A6F4D
:10FCCE006B6B6A516B11D8A46FEF7EF071EF7EF003
:10FCDE0077EF7EF0000E696F650E686F7BEF7EF03A
:10FCEE00000E696F450E686F740E8A25D96E010E6F
:10FCFE008B21DA6E68C0DFFF7E07D8A07F07740EF7
:10FD0E009225016E010E9321026E740E8A25036EEA
:10FD1E00010E8B21046E94EC63F01EEF79F012004D
:10FD2E0000000000000000000000000000000000C5
:10FD3E000003FFFFC003FFFFC003FC3FC003F3CF70
:10FD4E00C003EFF3C003DFFBC003DBFBC003CFF345
:10FD5E00C003E7E7C003F81FC003FFFFC003FFFFA8
:10FD6E00C003FFFFC00001000003EFFFC002FFFF52
:10FD7E00C0003FE00003BFE0000000000003E3FC12
:10FD8E000003FF7C0002FFE0000008000003FC00FF
:10FD9E000000000000000000000000000000000055
:10FDAE00007CC0A0C0B0C0B8CEB8CC88C06CCA2889
:10FDBE00C030C038C040C048C050C058C094C0AC5D
:10FDCE00C8000000000000005F00000007000700F0
:10FDDE00147F147F14242A7F2A1223130864623698
:10FDEE00495522500005030000001C22410000412D
:10FDFE00221C0014083E081408083E080800503063
:10FE0E0000000808080808006060000020100804C0
:10FE1E00023E5149453E00427F40004261514946F3
:10FE2E002141454B311814127F1027454545393C69
:10FE3E004A4949300171090503364949493606498F
:10FE4E0049291E00363600000056360000081422DE
:10FE5E004100141414141400412214080201510913
:10FE6E0006324979413E7E1111117E7F494949364C
:10FE7E003E414141227F4141221C7F494949417FF8
:10FE8E00090909013E4149497A7F0808087F004166
:10FE9E007F41002040413F017F081422417F4040B6
:10FEAE0040407F020C027F7F0408107F3E4141419B
:10FEBE003E7F090909063E4151215E7F09192946F7
:10FECE00464949493101017F01013F4040403F1FF2
:10FEDE002040201F3F4038403F631408146307083A
:10FEEE007008076151494543007F414100020408F3
:10FEFE0010200041417F00040201020440404040B6
:10FF0E0040000102040020545454787F4844443881
:10FF1E003844444420384444487F385454541808D4
:10FF2E007E0901020C5252523E7F080404780044AE
:10FF3E007D40002040443D007F1028440000417F5A
:10FF4E0040007C041804787C080404783844444447
:10FF5E00387C14141408081414187C7C0804040843
:10FF6E004854545420043F4440203C4040207C1CC4
:10FF7E002040201C3C4030403C44281028440C506B
:10FF8E0050503C4464544C44000836410000007FFD
:10FF9E000000004136080010080810087846414657
:10FFAE0078202020204261746572696120372E34DA
:10FFBE00562000506F74656E6369613A2000436F7E
:10FFCE007272656E74653A200054656E73616F3A95
:10FFDE002000252E326600494E46004E414E0069E5
:10FFEE006E66006E616E004F4C41006C66004F49AC
:02FFFE00000001
:020000040020DA
:08000000FFFFFFFFFFFFFFFF00
:020000040030CA
:0E00000015087F7CFF8991FF0FC00FE00F40B5
:00000001FF
